{"abi":[{"type":"constructor","inputs":[{"name":"_admin","type":"address","internalType":"address"}],"stateMutability":"nonpayable"},{"type":"function","name":"admin","inputs":[],"outputs":[{"name":"","type":"address","internalType":"address"}],"stateMutability":"view"},{"type":"function","name":"getAgentId","inputs":[{"name":"agentWallet","type":"address","internalType":"address"}],"outputs":[{"name":"","type":"bytes32","internalType":"bytes32"}],"stateMutability":"view"},{"type":"function","name":"getAgentsByOwner","inputs":[{"name":"owner","type":"address","internalType":"address"}],"outputs":[{"name":"","type":"bytes32[]","internalType":"bytes32[]"}],"stateMutability":"view"},{"type":"function","name":"isActive","inputs":[{"name":"agentId","type":"bytes32","internalType":"bytes32"}],"outputs":[{"name":"","type":"bool","internalType":"bool"}],"stateMutability":"view"},{"type":"function","name":"pause","inputs":[],"outputs":[],"stateMutability":"nonpayable"},{"type":"function","name":"paused","inputs":[],"outputs":[{"name":"","type":"bool","internalType":"bool"}],"stateMutability":"view"},{"type":"function","name":"register","inputs":[{"name":"agentWallet","type":"address","internalType":"address"},{"name":"model","type":"string","internalType":"string"},{"name":"parentAgentId","type":"bytes32","internalType":"bytes32"},{"name":"metadataCID","type":"string","internalType":"string"}],"outputs":[{"name":"agentId","type":"bytes32","internalType":"bytes32"}],"stateMutability":"nonpayable"},{"type":"function","name":"resolve","inputs":[{"name":"agentId","type":"bytes32","internalType":"bytes32"}],"outputs":[{"name":"","type":"tuple","internalType":"struct AgentRecord","components":[{"name":"agentAddress","type":"address","internalType":"address"},{"name":"owner","type":"address","internalType":"address"},{"name":"status","type":"uint8","internalType":"enum AgentStatus"},{"name":"registeredAt","type":"uint48","internalType":"uint48"},{"name":"agentId","type":"bytes32","internalType":"bytes32"},{"name":"did","type":"string","internalType":"string"},{"name":"model","type":"string","internalType":"string"},{"name":"parentAgentId","type":"bytes32","internalType":"bytes32"},{"name":"metadataCID","type":"string","internalType":"string"}]}],"stateMutability":"view"},{"type":"function","name":"setPermissionVault","inputs":[{"name":"agentId","type":"bytes32","internalType":"bytes32"},{"name":"","type":"address","internalType":"address"}],"outputs":[],"stateMutability":"view"},{"type":"function","name":"totalAgents","inputs":[],"outputs":[{"name":"","type":"uint256","internalType":"uint256"}],"stateMutability":"view"},{"type":"function","name":"unpause","inputs":[],"outputs":[],"stateMutability":"nonpayable"},{"type":"function","name":"updateStatus","inputs":[{"name":"agentId","type":"bytes32","internalType":"bytes32"},{"name":"newStatus","type":"uint8","internalType":"enum AgentStatus"}],"outputs":[],"stateMutability":"nonpayable"},{"type":"event","name":"AgentRegistered","inputs":[{"name":"agentId","type":"bytes32","indexed":true,"internalType":"bytes32"},{"name":"agentAddress","type":"address","indexed":true,"internalType":"address"},{"name":"owner","type":"address","indexed":true,"internalType":"address"},{"name":"did","type":"string","indexed":false,"internalType":"string"},{"name":"registeredAt","type":"uint48","indexed":false,"internalType":"uint48"}],"anonymous":false},{"type":"event","name":"AgentStatusUpdated","inputs":[{"name":"agentId","type":"bytes32","indexed":true,"internalType":"bytes32"},{"name":"newStatus","type":"uint8","indexed":false,"internalType":"enum AgentStatus"}],"anonymous":false},{"type":"event","name":"Paused","inputs":[{"name":"account","type":"address","indexed":false,"internalType":"address"}],"anonymous":false},{"type":"event","name":"Unpaused","inputs":[{"name":"account","type":"address","indexed":false,"internalType":"address"}],"anonymous":false},{"type":"error","name":"AlreadyRegistered","inputs":[{"name":"agentWallet","type":"address","internalType":"address"}]},{"type":"error","name":"EnforcedPause","inputs":[]},{"type":"error","name":"ExpectedPause","inputs":[]},{"type":"error","name":"NotFound","inputs":[{"name":"agentId","type":"bytes32","internalType":"bytes32"}]},{"type":"error","name":"NotOwner","inputs":[{"name":"agentId","type":"bytes32","internalType":"bytes32"},{"name":"caller","type":"address","internalType":"address"}]},{"type":"error","name":"ZeroAddress","inputs":[]}],"bytecode":{"object":"0x60a060405234801561000f575f80fd5b506040516114b43803806114b483398101604081905261002e91610066565b6001600160a01b0381166100555760405163d92e233d60e01b815260040160405180910390fd5b6001600160a01b0316608052610093565b5f60208284031215610076575f80fd5b81516001600160a01b038116811461008c575f80fd5b9392505050565b6080516113f46100c05f395f81816101b5015281816102540152818161037b015261093701526113f45ff3fe608060405234801561000f575f80fd5b50600436106100b1575f3560e01c80635c975abb1161006e5780635c975abb14610170578063682a97af1461017a5780637476fa441461018d5780638456cb59146101a0578063c5053712146101a8578063f851a440146101b0575f80fd5b8063042324b6146100b5578063054372ed146100f05780631ab6f888146101055780633f4ba83a146101255780635c23bdf51461012d5780635c36901c1461014d575b5f80fd5b6100dd6100c3366004610d8a565b6001600160a01b03165f9081526002602052604090205490565b6040519081526020015b60405180910390f35b6101036100fe366004610daa565b6101ef565b005b610118610113366004610d8a565b610307565b6040516100e79190610ddb565b610103610370565b61014061013b366004610e1e565b6103de565b6040516100e79190610eb6565b61016061015b366004610e1e565b610675565b60405190151581526020016100e7565b5f5460ff16610160565b610103610188366004610f8b565b6106ab565b6100dd61019b366004610ffa565b610723565b61010361092c565b6004546100dd565b6101d77f000000000000000000000000000000000000000000000000000000000000000081565b6040516001600160a01b0390911681526020016100e7565b5f828152600160208190526040909120908101546001600160a01b031661023157604051632d24044b60e11b8152600481018490526024015b60405180910390fd5b60018101546001600160a01b031633148015906102775750336001600160a01b037f00000000000000000000000000000000000000000000000000000000000000001614155b1561029e57604051630e25346d60e01b815260048101849052336024820152604401610228565b60018101805483919060ff60a01b1916600160a01b8360028111156102c5576102c5610e35565b0217905550827f8f95c0fce60bbce52c2737b54ae071e31a6a9c014da368d5a38632f2d502d536836040516102fa919061107e565b60405180910390a2505050565b6001600160a01b0381165f9081526003602090815260409182902080548351818402810184019094528084526060939283018282801561036457602002820191905f5260205f20905b815481526020019060010190808311610350575b50505050509050919050565b336001600160a01b037f000000000000000000000000000000000000000000000000000000000000000016146103d45760405162461bcd60e51b81526020600482015260096024820152683737ba1030b236b4b760b91b6044820152606401610228565b6103dc610998565b565b6040805161012080820183525f808352602080840182905283850182905260608085018390526080850183905260a0850181905260c0850181905260e085018390526101008501528582526001808252918590208551938401865280546001600160a01b03908116855292810154928316918401919091529293919291830190600160a01b900460ff16600281111561047957610479610e35565b600281111561048a5761048a610e35565b81526001820154600160a81b900465ffffffffffff166020820152600282015460408201526003820180546060909201916104c490611092565b80601f01602080910402602001604051908101604052809291908181526020018280546104f090611092565b801561053b5780601f106105125761010080835404028352916020019161053b565b820191905f5260205f20905b81548152906001019060200180831161051e57829003601f168201915b5050505050815260200160048201805461055490611092565b80601f016020809104026020016040519081016040528092919081815260200182805461058090611092565b80156105cb5780601f106105a2576101008083540402835291602001916105cb565b820191905f5260205f20905b8154815290600101906020018083116105ae57829003601f168201915b50505050508152602001600582015481526020016006820180546105ee90611092565b80601f016020809104026020016040519081016040528092919081815260200182805461061a90611092565b80156106655780601f1061063c57610100808354040283529160200191610665565b820191905f5260205f20905b81548152906001019060200180831161064857829003601f168201915b5050505050815250509050919050565b5f805f8381526001602081905260409091200154600160a01b900460ff1660028111156106a4576106a4610e35565b1492915050565b5f828152600160208190526040909120908101546001600160a01b03166106e857604051632d24044b60e11b815260048101849052602401610228565b60018101546001600160a01b0316331461071e57604051630e25346d60e01b815260048101849052336024820152604401610228565b505050565b5f61072c6109e9565b6001600160a01b0387166107535760405163d92e233d60e01b815260040160405180910390fd5b6001600160a01b0387165f9081526002602052604090205415610794576040516345ed80e960e01b81526001600160a01b0388166004820152602401610228565b335f81815260036020908152604091829020548251918201939093526001600160a01b038a1691810191909152606081018290526080016040516020818303038152906040528051906020012091505f6107ed89610a0c565b5f84815260016020819052604090912080546001600160a01b0319166001600160a01b038d1617815590810180546001600160d81b0319163366ffffffffffffff60a01b191617600160a81b4265ffffffffffff1602179055600281018590559091506003810161085e8382611129565b506004810161086e898b836111e9565b5060058101879055600681016108858688836111e9565b506001600160a01b038a165f90815260026020908152604080832087905533835260038252822080546001810182559083529082200185905560048054916108cc836112b7565b9190505550336001600160a01b03168a6001600160a01b0316857f8a9474f5cb1f59451cc9f88ac72e042411198fc37c260333e751c28cabfad2e685426040516109179291906112cf565b60405180910390a45050509695505050505050565b336001600160a01b037f000000000000000000000000000000000000000000000000000000000000000016146109905760405162461bcd60e51b81526020600482015260096024820152683737ba1030b236b4b760b91b6044820152606401610228565b6103dc610a50565b6109a0610a8c565b5f805460ff191690557f5db9ee0a495bf2e6ff9c91a7834c1ba4fdd244a5e8aa4e537bd38aeae4b073aa335b6040516001600160a01b03909116815260200160405180910390a1565b5f5460ff16156103dc5760405163d93c066560e01b815260040160405180910390fd5b60605f610a17610aae565b90505f610a2384610ba2565b90508181604051602001610a389291906112f8565b60405160208183030381529060405292505050919050565b610a586109e9565b5f805460ff191660011790557f62e78cea01bee320cd4e420270b5ea74000d11b0c9f74754ebdbfc544b05a2586109cc3390565b5f5460ff166103dc57604051638dfc202b60e01b815260040160405180910390fd5b6060466001819003610add5750506040805180820190915260078152661b585a5b9b995d60ca1b602082015290565b8061210503610b065750506040805180820190915260048152636261736560e01b602082015290565b8062014a3403610b3857505060408051808201909152600c81526b626173652d7365706f6c696160a01b602082015290565b8061a4b103610b6957505060408051808201909152600c81526b617262697472756d2d6f6e6560a01b602082015290565b80617a6903610b93575050604080518082019091526005815264185b9d9a5b60da1b602082015290565b610b9c81610c66565b91505090565b60408051602880825260608281019093525f91906020820181803683370190505060408051808201909152601081526f181899199a1a9b1b9c1cb0b131b232b360811b60208201529091508360285b8015610c5c5782515f19909101908390600f8416908110610c1457610c1461134a565b602001015160f81c60f81b848281518110610c3157610c3161134a565b60200101906001600160f81b03191690815f1a9053506004826001600160a01b0316901c9150610bf1565b5091949350505050565b6060815f03610c8c5750506040805180820190915260018152600360fc1b602082015290565b815f5b8115610cb55780610c9f816112b7565b9150610cae9050600a83611372565b9150610c8f565b5f8167ffffffffffffffff811115610ccf57610ccf6110ca565b6040519080825280601f01601f191660200182016040528015610cf9576020820181803683370190505b5090505b8415610d6757610d0e600183611385565b91505f610d1c600a87611398565b9050610d298160306113ab565b60f81b828481518110610d3e57610d3e61134a565b60200101906001600160f81b03191690815f1a905350610d5f600a87611372565b955050610cfd565b949350505050565b80356001600160a01b0381168114610d85575f80fd5b919050565b5f60208284031215610d9a575f80fd5b610da382610d6f565b9392505050565b5f8060408385031215610dbb575f80fd5b82359150602083013560038110610dd0575f80fd5b809150509250929050565b602080825282518282018190525f9190848201906040850190845b81811015610e1257835183529284019291840191600101610df6565b50909695505050505050565b5f60208284031215610e2e575f80fd5b5035919050565b634e487b7160e01b5f52602160045260245ffd5b60038110610e6557634e487b7160e01b5f52602160045260245ffd5b9052565b5f5b83811015610e83578181015183820152602001610e6b565b50505f910152565b5f8151808452610ea2816020860160208601610e69565b601f01601f19169290920160200192915050565b60208152610ed06020820183516001600160a01b03169052565b5f6020830151610eeb60408401826001600160a01b03169052565b506040830151610efe6060840182610e49565b50606083015165ffffffffffff8116608084015250608083015160a083015260a08301516101208060c0850152610f39610140850183610e8b565b915060c0850151601f19808685030160e0870152610f578483610e8b565b60e0880151610100888101919091528801518782039092018488015293509050610f818382610e8b565b9695505050505050565b5f8060408385031215610f9c575f80fd5b82359150610fac60208401610d6f565b90509250929050565b5f8083601f840112610fc5575f80fd5b50813567ffffffffffffffff811115610fdc575f80fd5b602083019150836020828501011115610ff3575f80fd5b9250929050565b5f805f805f806080878903121561100f575f80fd5b61101887610d6f565b9550602087013567ffffffffffffffff80821115611034575f80fd5b6110408a838b01610fb5565b909750955060408901359450606089013591508082111561105f575f80fd5b5061106c89828a01610fb5565b979a9699509497509295939492505050565b6020810161108c8284610e49565b92915050565b600181811c908216806110a657607f821691505b6020821081036110c457634e487b7160e01b5f52602260045260245ffd5b50919050565b634e487b7160e01b5f52604160045260245ffd5b601f82111561071e57805f5260205f20601f840160051c810160208510156111035750805b601f840160051c820191505b81811015611122575f815560010161110f565b5050505050565b815167ffffffffffffffff811115611143576111436110ca565b611157816111518454611092565b846110de565b602080601f83116001811461118a575f84156111735750858301515b5f19600386901b1c1916600185901b1785556111e1565b5f85815260208120601f198616915b828110156111b857888601518255948401946001909101908401611199565b50858210156111d557878501515f19600388901b60f8161c191681555b505060018460011b0185555b505050505050565b67ffffffffffffffff831115611201576112016110ca565b6112158361120f8354611092565b836110de565b5f601f841160018114611246575f851561122f5750838201355b5f19600387901b1c1916600186901b178355611122565b5f83815260208120601f198716915b828110156112755786850135825560209485019460019092019101611255565b5086821015611291575f1960f88860031b161c19848701351681555b505060018560011b0183555050505050565b634e487b7160e01b5f52601160045260245ffd5b5f600182016112c8576112c86112a3565b5060010190565b604081525f6112e16040830185610e8b565b905065ffffffffffff831660208301529392505050565b683234b21d32ba34391d60b91b81525f835161131b816009850160208801610e69565b6207460f60eb1b600991840191820152835161133e81600c840160208801610e69565b01600c01949350505050565b634e487b7160e01b5f52603260045260245ffd5b634e487b7160e01b5f52601260045260245ffd5b5f826113805761138061135e565b500490565b8181038181111561108c5761108c6112a3565b5f826113a6576113a661135e565b500690565b8082018082111561108c5761108c6112a356fea2646970667358221220c4c88b1d0165529f62e6a2f92d33e393ecdb3d6187eeeb71206fb1feec1f12ce64736f6c63430008180033","linkReferences":{}},"methodIdentifiers":{"admin()":"f851a440","getAgentId(address)":"042324b6","getAgentsByOwner(address)":"1ab6f888","isActive(bytes32)":"5c36901c","pause()":"8456cb59","paused()":"5c975abb","register(address,string,bytes32,string)":"7476fa44","resolve(bytes32)":"5c23bdf5","setPermissionVault(bytes32,address)":"682a97af","totalAgents()":"c5053712","unpause()":"3f4ba83a","updateStatus(bytes32,uint8)":"054372ed"},"id":41}