{"abi":[{"type":"constructor","inputs":[{"name":"admin","type":"address","internalType":"address"}],"stateMutability":"nonpayable"},{"type":"function","name":"DEFAULT_ADMIN_ROLE","inputs":[],"outputs":[{"name":"","type":"bytes32","internalType":"bytes32"}],"stateMutability":"view"},{"type":"function","name":"IPFS_ROLE","inputs":[],"outputs":[{"name":"","type":"bytes32","internalType":"bytes32"}],"stateMutability":"view"},{"type":"function","name":"LOGGER_ROLE","inputs":[],"outputs":[{"name":"","type":"bytes32","internalType":"bytes32"}],"stateMutability":"view"},{"type":"function","name":"addIPFSCID","inputs":[{"name":"eventId","type":"bytes32","internalType":"bytes32"},{"name":"cid","type":"string","internalType":"string"}],"outputs":[],"stateMutability":"nonpayable"},{"type":"function","name":"getAgentHistory","inputs":[{"name":"agentId","type":"bytes32","internalType":"bytes32"},{"name":"offset","type":"uint256","internalType":"uint256"},{"name":"limit","type":"uint256","internalType":"uint256"}],"outputs":[{"name":"eventIds","type":"bytes32[]","internalType":"bytes32[]"}],"stateMutability":"view"},{"type":"function","name":"getAuditRecord","inputs":[{"name":"eventId","type":"bytes32","internalType":"bytes32"}],"outputs":[{"name":"","type":"tuple","internalType":"struct AuditRecord","components":[{"name":"eventId","type":"bytes32","internalType":"bytes32"},{"name":"agentId","type":"bytes32","internalType":"bytes32"},{"name":"actionHash","type":"bytes32","internalType":"bytes32"},{"name":"target","type":"address","internalType":"address"},{"name":"selector","type":"bytes4","internalType":"bytes4"},{"name":"tokenAddress","type":"address","internalType":"address"},{"name":"usdAmount","type":"uint256","internalType":"uint256"},{"name":"timestamp","type":"uint48","internalType":"uint48"},{"name":"allowed","type":"bool","internalType":"bool"},{"name":"violationType","type":"string","internalType":"string"},{"name":"ipfsCID","type":"string","internalType":"string"}]}],"stateMutability":"view"},{"type":"function","name":"getRoleAdmin","inputs":[{"name":"role","type":"bytes32","internalType":"bytes32"}],"outputs":[{"name":"","type":"bytes32","internalType":"bytes32"}],"stateMutability":"view"},{"type":"function","name":"getTotalEvents","inputs":[{"name":"agentId","type":"bytes32","internalType":"bytes32"}],"outputs":[{"name":"","type":"uint256","internalType":"uint256"}],"stateMutability":"view"},{"type":"function","name":"grantRole","inputs":[{"name":"role","type":"bytes32","internalType":"bytes32"},{"name":"account","type":"address","internalType":"address"}],"outputs":[],"stateMutability":"nonpayable"},{"type":"function","name":"hasRole","inputs":[{"name":"role","type":"bytes32","internalType":"bytes32"},{"name":"account","type":"address","internalType":"address"}],"outputs":[{"name":"","type":"bool","internalType":"bool"}],"stateMutability":"view"},{"type":"function","name":"logAction","inputs":[{"name":"agentId","type":"bytes32","internalType":"bytes32"},{"name":"actionHash","type":"bytes32","internalType":"bytes32"},{"name":"target","type":"address","internalType":"address"},{"name":"selector","type":"bytes4","internalType":"bytes4"},{"name":"tokenAddress","type":"address","internalType":"address"},{"name":"usdAmount","type":"uint256","internalType":"uint256"},{"name":"allowed","type":"bool","internalType":"bool"},{"name":"violationType","type":"string","internalType":"string"}],"outputs":[{"name":"eventId","type":"bytes32","internalType":"bytes32"}],"stateMutability":"nonpayable"},{"type":"function","name":"pause","inputs":[],"outputs":[],"stateMutability":"nonpayable"},{"type":"function","name":"paused","inputs":[],"outputs":[{"name":"","type":"bool","internalType":"bool"}],"stateMutability":"view"},{"type":"function","name":"renounceRole","inputs":[{"name":"role","type":"bytes32","internalType":"bytes32"},{"name":"callerConfirmation","type":"address","internalType":"address"}],"outputs":[],"stateMutability":"nonpayable"},{"type":"function","name":"revokeRole","inputs":[{"name":"role","type":"bytes32","internalType":"bytes32"},{"name":"account","type":"address","internalType":"address"}],"outputs":[],"stateMutability":"nonpayable"},{"type":"function","name":"supportsInterface","inputs":[{"name":"interfaceId","type":"bytes4","internalType":"bytes4"}],"outputs":[{"name":"","type":"bool","internalType":"bool"}],"stateMutability":"view"},{"type":"function","name":"unpause","inputs":[],"outputs":[],"stateMutability":"nonpayable"},{"type":"event","name":"ActionLogged","inputs":[{"name":"eventId","type":"bytes32","indexed":true,"internalType":"bytes32"},{"name":"agentId","type":"bytes32","indexed":true,"internalType":"bytes32"},{"name":"target","type":"address","indexed":true,"internalType":"address"},{"name":"selector","type":"bytes4","indexed":false,"internalType":"bytes4"},{"name":"allowed","type":"bool","indexed":false,"internalType":"bool"},{"name":"timestamp","type":"uint48","indexed":false,"internalType":"uint48"}],"anonymous":false},{"type":"event","name":"IPFSCIDAdded","inputs":[{"name":"eventId","type":"bytes32","indexed":true,"internalType":"bytes32"},{"name":"cid","type":"string","indexed":false,"internalType":"string"}],"anonymous":false},{"type":"event","name":"Paused","inputs":[{"name":"account","type":"address","indexed":false,"internalType":"address"}],"anonymous":false},{"type":"event","name":"RoleAdminChanged","inputs":[{"name":"role","type":"bytes32","indexed":true,"internalType":"bytes32"},{"name":"previousAdminRole","type":"bytes32","indexed":true,"internalType":"bytes32"},{"name":"newAdminRole","type":"bytes32","indexed":true,"internalType":"bytes32"}],"anonymous":false},{"type":"event","name":"RoleGranted","inputs":[{"name":"role","type":"bytes32","indexed":true,"internalType":"bytes32"},{"name":"account","type":"address","indexed":true,"internalType":"address"},{"name":"sender","type":"address","indexed":true,"internalType":"address"}],"anonymous":false},{"type":"event","name":"RoleRevoked","inputs":[{"name":"role","type":"bytes32","indexed":true,"internalType":"bytes32"},{"name":"account","type":"address","indexed":true,"internalType":"address"},{"name":"sender","type":"address","indexed":true,"internalType":"address"}],"anonymous":false},{"type":"event","name":"Unpaused","inputs":[{"name":"account","type":"address","indexed":false,"internalType":"address"}],"anonymous":false},{"type":"error","name":"AccessControlBadConfirmation","inputs":[]},{"type":"error","name":"AccessControlUnauthorizedAccount","inputs":[{"name":"account","type":"address","internalType":"address"},{"name":"neededRole","type":"bytes32","internalType":"bytes32"}]},{"type":"error","name":"EnforcedPause","inputs":[]},{"type":"error","name":"ExpectedPause","inputs":[]}],"bytecode":{"object":"0x608060405234801562000010575f80fd5b50604051620015343803806200153483398101604081905262000033916200014d565b6200003f5f82620000a1565b506200006c7f566c814873eed56a69b28c40ab27cc2cb150d74068bae3e884ccd44f8de60f8a82620000a1565b50620000997f0ef39a43d204121047fe029ed630ac5ea10a06bf88aea7a8a5dfc47abe09992c82620000a1565b50506200017c565b5f828152602081815260408083206001600160a01b038516845290915281205460ff1662000144575f838152602081815260408083206001600160a01b03861684529091529020805460ff19166001179055620000fb3390565b6001600160a01b0316826001600160a01b0316847f2f8788117e7eff1d82e926ec794901d17c78024a50270940304540a733656f0d60405160405180910390a450600162000147565b505f5b92915050565b5f602082840312156200015e575f80fd5b81516001600160a01b038116811462000175575f80fd5b9392505050565b6113aa806200018a5f395ff3fe608060405234801561000f575f80fd5b5060043610610106575f3560e01c80633f4ba83a1161009e5780638456cb591161006e5780638456cb591461024957806391d1485414610251578063a217fddf14610264578063c167bc651461026b578063d547741f14610292575f80fd5b80633f4ba83a146101fc57806357f7bcaa146102045780635c975abb146102175780637bf0fbde14610222575f80fd5b8063248a9ca3116100d9578063248a9ca3146101945780632f2ff15d146101b657806331d5f322146101c957806336568abe146101e9575f80fd5b806301ffc9a71461010a5780631c315e49146101325780631f4b1c9e146101475780632347306614610167575b5f80fd5b61011d610118366004610d98565b6102a5565b60405190151581526020015b60405180910390f35b610145610140366004610df6565b6102db565b005b61015a610155366004610e3e565b610437565b6040516101299190610e98565b610186610175366004610e3e565b5f9081526003602052604090205490565b604051908152602001610129565b6101866101a2366004610e3e565b5f9081526020819052604090206001015490565b6101456101c4366004610f94565b610665565b6101dc6101d7366004610fbe565b61068f565b6040516101299190610fe7565b6101456101f7366004610f94565b61078a565b6101456107c2565b61018661021236600461102a565b6107d7565b60015460ff1661011d565b6101867f566c814873eed56a69b28c40ab27cc2cb150d74068bae3e884ccd44f8de60f8a81565b610145610b09565b61011d61025f366004610f94565b610b1b565b6101865f81565b6101867f0ef39a43d204121047fe029ed630ac5ea10a06bf88aea7a8a5dfc47abe09992c81565b6101456102a0366004610f94565b610b43565b5f6001600160e01b03198216637965db0b60e01b14806102d557506301ffc9a760e01b6001600160e01b03198316145b92915050565b7f0ef39a43d204121047fe029ed630ac5ea10a06bf88aea7a8a5dfc47abe09992c61030581610b67565b5f8481526002602052604081206006015465ffffffffffff1690036103715760405162461bcd60e51b815260206004820152601d60248201527f41756469744c6f676765723a207265636f7264206e6f7420666f756e6400000060448201526064015b60405180910390fd5b5f848152600260205260409020600801805461038c906110cf565b1590506103db5760405162461bcd60e51b815260206004820152601c60248201527f41756469744c6f676765723a2043494420616c726561647920736574000000006044820152606401610368565b5f8481526002602052604090206008016103f6838583611166565b50837f54c745017aee3bc4edf69f5c0da5564179070b5b168f21508a5cd67e7b81a6488484604051610429929190611220565b60405180910390a250505050565b60408051610160810182525f8082526020820181905291810182905260608082018390526080820183905260a0820183905260c0820183905260e0820183905261010082019290925261012081018290526101408101919091525f8281526002602081815260409283902083516101608101855281548152600182015492810192909252918201549281019290925260038101546001600160a01b038082166060850152600160a01b90910460e090811b6001600160e01b0319166080850152600483015490911660a0840152600582015460c0840152600682015465ffffffffffff8116918401919091526601000000000000900460ff1615156101008301526007810180546101208401919061054e906110cf565b80601f016020809104026020016040519081016040528092919081815260200182805461057a906110cf565b80156105c55780601f1061059c576101008083540402835291602001916105c5565b820191905f5260205f20905b8154815290600101906020018083116105a857829003601f168201915b505050505081526020016008820180546105de906110cf565b80601f016020809104026020016040519081016040528092919081815260200182805461060a906110cf565b80156106555780601f1061062c57610100808354040283529160200191610655565b820191905f5260205f20905b81548152906001019060200180831161063857829003601f168201915b5050505050815250509050919050565b5f8281526020819052604090206001015461067f81610b67565b6106898383610b71565b50505050565b5f8381526003602052604090208054606091908085106106c0575050604080515f8152602081019091529050610783565b5f6106cb8587611262565b9050818111156106d85750805b5f6106e38783611275565b90508067ffffffffffffffff8111156106fe576106fe611107565b604051908082528060200260200182016040528015610727578160200160208202803683370190505b5094505f5b8181101561077d578461073f828a611262565b8154811061074f5761074f611288565b905f5260205f20015486828151811061076a5761076a611288565b602090810291909101015260010161072c565b50505050505b9392505050565b6001600160a01b03811633146107b35760405163334bd91960e11b815260040160405180910390fd5b6107bd8282610c00565b505050565b5f6107cc81610b67565b6107d4610c69565b50565b5f7f566c814873eed56a69b28c40ab27cc2cb150d74068bae3e884ccd44f8de60f8a61080281610b67565b61080a610cbb565b5f8b8152600460205260408120805490826108248361129c565b9091555060408051602081018f90529081018d90524360608201526080810182905290915060a00160408051601f1981840301815291815281516020928301205f818152600290935291206006015490935065ffffffffffff16156108cb5760405162461bcd60e51b815260206004820152601e60248201527f41756469744c6f676765723a206576656e74496420636f6c6c6973696f6e00006044820152606401610368565b6040518061016001604052808481526020018d81526020018c81526020018b6001600160a01b031681526020018a6001600160e01b0319168152602001896001600160a01b031681526020018881526020014265ffffffffffff168152602001871515815260200186868080601f0160208091040260200160405190810160405280939291908181526020018383808284375f9201829052509385525050604080516020808201835284825294850152878352600280855292819020855181559385015160018501558401519183019190915550606082015160038201805460808501516001600160a01b039384166001600160c01b031990921691909117600160a01b60e092831c021790915560a08401516004840180546001600160a01b031916919093161790915560c0830151600583015582015160068201805461010085015165ffffffffffff90931666ffffffffffffff19909116176601000000000000921515929092029190911790556101208201516007820190610a5090826112b4565b506101408201516008820190610a6690826112b4565b5050505f8c815260036020908152604080832080546001810182559084529190922001849055516001600160a01b038b16908d9085907fe9ab5e70b509804d32ce148309c2a5291ca82943cf0e42567c4c58c2023cc6a090610af2908e908c9042906001600160e01b0319939093168352901515602083015265ffffffffffff16604082015260600190565b60405180910390a450509998505050505050505050565b5f610b1381610b67565b6107d4610ce1565b5f918252602082815260408084206001600160a01b0393909316845291905290205460ff1690565b5f82815260208190526040902060010154610b5d81610b67565b6106898383610c00565b6107d48133610d1c565b5f610b7c8383610b1b565b610bf9575f838152602081815260408083206001600160a01b03861684529091529020805460ff19166001179055610bb13390565b6001600160a01b0316826001600160a01b0316847f2f8788117e7eff1d82e926ec794901d17c78024a50270940304540a733656f0d60405160405180910390a45060016102d5565b505f6102d5565b5f610c0b8383610b1b565b15610bf9575f838152602081815260408083206001600160a01b0386168085529252808320805460ff1916905551339286917ff6391f5c32d9c69d2a47ea670b442974b53935d1edc7fd64eb21e047a839171b9190a45060016102d5565b610c71610d59565b6001805460ff191690557f5db9ee0a495bf2e6ff9c91a7834c1ba4fdd244a5e8aa4e537bd38aeae4b073aa335b6040516001600160a01b03909116815260200160405180910390a1565b60015460ff1615610cdf5760405163d93c066560e01b815260040160405180910390fd5b565b610ce9610cbb565b6001805460ff1916811790557f62e78cea01bee320cd4e420270b5ea74000d11b0c9f74754ebdbfc544b05a25833610c9e565b610d268282610b1b565b610d555760405163e2517d3f60e01b81526001600160a01b038216600482015260248101839052604401610368565b5050565b60015460ff16610cdf57604051638dfc202b60e01b815260040160405180910390fd5b80356001600160e01b031981168114610d93575f80fd5b919050565b5f60208284031215610da8575f80fd5b61078382610d7c565b5f8083601f840112610dc1575f80fd5b50813567ffffffffffffffff811115610dd8575f80fd5b602083019150836020828501011115610def575f80fd5b9250929050565b5f805f60408486031215610e08575f80fd5b83359250602084013567ffffffffffffffff811115610e25575f80fd5b610e3186828701610db1565b9497909650939450505050565b5f60208284031215610e4e575f80fd5b5035919050565b5f81518084525f5b81811015610e7957602081850181015186830182015201610e5d565b505f602082860101526020601f19601f83011685010191505092915050565b602081528151602082015260208201516040820152604082015160608201525f6060830151610ed260808401826001600160a01b03169052565b5060808301516001600160e01b0319811660a08401525060a08301516001600160a01b03811660c08401525060c083015160e083015260e0830151610100610f238185018365ffffffffffff169052565b8401519050610120610f388482018315159052565b808501519150506101606101408181860152610f58610180860184610e55565b90860151858203601f190183870152909250610f748382610e55565b9695505050505050565b80356001600160a01b0381168114610d93575f80fd5b5f8060408385031215610fa5575f80fd5b82359150610fb560208401610f7e565b90509250929050565b5f805f60608486031215610fd0575f80fd5b505081359360208301359350604090920135919050565b602080825282518282018190525f9190848201906040850190845b8181101561101e57835183529284019291840191600101611002565b50909695505050505050565b5f805f805f805f805f6101008a8c031215611043575f80fd5b8935985060208a0135975061105a60408b01610f7e565b965061106860608b01610d7c565b955061107660808b01610f7e565b945060a08a0135935060c08a01358015158114611091575f80fd5b925060e08a013567ffffffffffffffff8111156110ac575f80fd5b6110b88c828d01610db1565b915080935050809150509295985092959850929598565b600181811c908216806110e357607f821691505b60208210810361110157634e487b7160e01b5f52602260045260245ffd5b50919050565b634e487b7160e01b5f52604160045260245ffd5b601f8211156107bd57805f5260205f20601f840160051c810160208510156111405750805b601f840160051c820191505b8181101561115f575f815560010161114c565b5050505050565b67ffffffffffffffff83111561117e5761117e611107565b6111928361118c83546110cf565b8361111b565b5f601f8411600181146111c3575f85156111ac5750838201355b5f19600387901b1c1916600186901b17835561115f565b5f83815260208120601f198716915b828110156111f257868501358255602094850194600190920191016111d2565b508682101561120e575f1960f88860031b161c19848701351681555b505060018560011b0183555050505050565b60208152816020820152818360408301375f818301604090810191909152601f909201601f19160101919050565b634e487b7160e01b5f52601160045260245ffd5b808201808211156102d5576102d561124e565b818103818111156102d5576102d561124e565b634e487b7160e01b5f52603260045260245ffd5b5f600182016112ad576112ad61124e565b5060010190565b815167ffffffffffffffff8111156112ce576112ce611107565b6112e2816112dc84546110cf565b8461111b565b602080601f831160018114611315575f84156112fe5750858301515b5f19600386901b1c1916600185901b17855561136c565b5f85815260208120601f198616915b8281101561134357888601518255948401946001909101908401611324565b508582101561136057878501515f19600388901b60f8161c191681555b505060018460011b0185555b50505050505056fea2646970667358221220d48bc69daa02ecac313d814ed62ce63c5b8cf20189623f7d6c138954a1fff95664736f6c63430008180033","linkReferences":{}},"methodIdentifiers":{"DEFAULT_ADMIN_ROLE()":"a217fddf","IPFS_ROLE()":"c167bc65","LOGGER_ROLE()":"7bf0fbde","addIPFSCID(bytes32,string)":"1c315e49","getAgentHistory(bytes32,uint256,uint256)":"31d5f322","getAuditRecord(bytes32)":"1f4b1c9e","getRoleAdmin(bytes32)":"248a9ca3","getTotalEvents(bytes32)":"23473066","grantRole(bytes32,address)":"2f2ff15d","hasRole(bytes32,address)":"91d14854","logAction(bytes32,bytes32,address,bytes4,address,uint256,bool,string)":"57f7bcaa","pause()":"8456cb59","paused()":"5c975abb","renounceRole(bytes32,address)":"36568abe","revokeRole(bytes32,address)":"d547741f","supportsInterface(bytes4)":"01ffc9a7","unpause()":"3f4ba83a"},"id":42}