{"abi":[{"type":"constructor","inputs":[{"name":"_admin","type":"address","internalType":"address"},{"name":"_agentRegistry","type":"address","internalType":"address"},{"name":"_revocationRegistry","type":"address","internalType":"address"},{"name":"_spendTracker","type":"address","internalType":"address"},{"name":"_auditLogger","type":"address","internalType":"address"}],"stateMutability":"nonpayable"},{"type":"function","name":"DOMAIN_SEPARATOR","inputs":[],"outputs":[{"name":"","type":"bytes32","internalType":"bytes32"}],"stateMutability":"view"},{"type":"function","name":"SCOPE_TYPEHASH","inputs":[],"outputs":[{"name":"","type":"bytes32","internalType":"bytes32"}],"stateMutability":"view"},{"type":"function","name":"agentRegistry","inputs":[],"outputs":[{"name":"","type":"address","internalType":"contract AgentRegistry"}],"stateMutability":"view"},{"type":"function","name":"auditLogger","inputs":[],"outputs":[{"name":"","type":"address","internalType":"contract AuditLogger"}],"stateMutability":"view"},{"type":"function","name":"eip712Domain","inputs":[],"outputs":[{"name":"fields","type":"bytes1","internalType":"bytes1"},{"name":"name","type":"string","internalType":"string"},{"name":"version","type":"string","internalType":"string"},{"name":"chainId","type":"uint256","internalType":"uint256"},{"name":"verifyingContract","type":"address","internalType":"address"},{"name":"salt","type":"bytes32","internalType":"bytes32"},{"name":"extensions","type":"uint256[]","internalType":"uint256[]"}],"stateMutability":"view"},{"type":"function","name":"emergencyRevoke","inputs":[{"name":"agentId","type":"bytes32","internalType":"bytes32"}],"outputs":[],"stateMutability":"nonpayable"},{"type":"function","name":"getActiveScope","inputs":[{"name":"agentId","type":"bytes32","internalType":"bytes32"}],"outputs":[{"name":"","type":"tuple","internalType":"struct PermissionScope","components":[{"name":"agentId","type":"bytes32","internalType":"bytes32"},{"name":"allowedProtocols","type":"address[]","internalType":"address[]"},{"name":"allowedSelectors","type":"bytes4[]","internalType":"bytes4[]"},{"name":"allowedTokens","type":"address[]","internalType":"address[]"},{"name":"dailySpendCapUSD","type":"uint256","internalType":"uint256"},{"name":"perTxSpendCapUSD","type":"uint256","internalType":"uint256"},{"name":"validFrom","type":"uint48","internalType":"uint48"},{"name":"validUntil","type":"uint48","internalType":"uint48"},{"name":"allowAnyProtocol","type":"bool","internalType":"bool"},{"name":"allowAnyToken","type":"bool","internalType":"bool"},{"name":"revoked","type":"bool","internalType":"bool"},{"name":"grantHash","type":"bytes32","internalType":"bytes32"},{"name":"windowStartHour","type":"uint8","internalType":"uint8"},{"name":"windowEndHour","type":"uint8","internalType":"uint8"},{"name":"windowDaysMask","type":"uint8","internalType":"uint8"},{"name":"allowedChainId","type":"uint64","internalType":"uint64"}]}],"stateMutability":"view"},{"type":"function","name":"grantNonces","inputs":[{"name":"agentId","type":"bytes32","internalType":"bytes32"}],"outputs":[{"name":"","type":"uint256","internalType":"uint256"}],"stateMutability":"view"},{"type":"function","name":"grantPermission","inputs":[{"name":"agentId","type":"bytes32","internalType":"bytes32"},{"name":"scope","type":"tuple","internalType":"struct PermissionScope","components":[{"name":"agentId","type":"bytes32","internalType":"bytes32"},{"name":"allowedProtocols","type":"address[]","internalType":"address[]"},{"name":"allowedSelectors","type":"bytes4[]","internalType":"bytes4[]"},{"name":"allowedTokens","type":"address[]","internalType":"address[]"},{"name":"dailySpendCapUSD","type":"uint256","internalType":"uint256"},{"name":"perTxSpendCapUSD","type":"uint256","internalType":"uint256"},{"name":"validFrom","type":"uint48","internalType":"uint48"},{"name":"validUntil","type":"uint48","internalType":"uint48"},{"name":"allowAnyProtocol","type":"bool","internalType":"bool"},{"name":"allowAnyToken","type":"bool","internalType":"bool"},{"name":"revoked","type":"bool","internalType":"bool"},{"name":"grantHash","type":"bytes32","internalType":"bytes32"},{"name":"windowStartHour","type":"uint8","internalType":"uint8"},{"name":"windowEndHour","type":"uint8","internalType":"uint8"},{"name":"windowDaysMask","type":"uint8","internalType":"uint8"},{"name":"allowedChainId","type":"uint64","internalType":"uint64"}]},{"name":"ownerSignature","type":"bytes","internalType":"bytes"}],"outputs":[],"stateMutability":"nonpayable"},{"type":"function","name":"isModuleType","inputs":[{"name":"moduleTypeId","type":"uint256","internalType":"uint256"}],"outputs":[{"name":"","type":"bool","internalType":"bool"}],"stateMutability":"pure"},{"type":"function","name":"onInstall","inputs":[{"name":"","type":"bytes","internalType":"bytes"}],"outputs":[],"stateMutability":"pure"},{"type":"function","name":"onUninstall","inputs":[{"name":"","type":"bytes","internalType":"bytes"}],"outputs":[],"stateMutability":"pure"},{"type":"function","name":"owner","inputs":[],"outputs":[{"name":"","type":"address","internalType":"address"}],"stateMutability":"view"},{"type":"function","name":"pause","inputs":[],"outputs":[],"stateMutability":"nonpayable"},{"type":"function","name":"paused","inputs":[],"outputs":[{"name":"","type":"bool","internalType":"bool"}],"stateMutability":"view"},{"type":"function","name":"renounceOwnership","inputs":[],"outputs":[],"stateMutability":"nonpayable"},{"type":"function","name":"revocationRegistry","inputs":[],"outputs":[{"name":"","type":"address","internalType":"contract RevocationRegistry"}],"stateMutability":"view"},{"type":"function","name":"revokePermission","inputs":[{"name":"agentId","type":"bytes32","internalType":"bytes32"}],"outputs":[],"stateMutability":"nonpayable"},{"type":"function","name":"spendTracker","inputs":[],"outputs":[{"name":"","type":"address","internalType":"contract SpendTracker"}],"stateMutability":"view"},{"type":"function","name":"transferOwnership","inputs":[{"name":"newOwner","type":"address","internalType":"address"}],"outputs":[],"stateMutability":"nonpayable"},{"type":"function","name":"unpause","inputs":[],"outputs":[],"stateMutability":"nonpayable"},{"type":"function","name":"validateUserOp","inputs":[{"name":"userOp","type":"tuple","internalType":"struct PackedUserOperation","components":[{"name":"sender","type":"address","internalType":"address"},{"name":"nonce","type":"uint256","internalType":"uint256"},{"name":"initCode","type":"bytes","internalType":"bytes"},{"name":"callData","type":"bytes","internalType":"bytes"},{"name":"accountGasLimits","type":"bytes32","internalType":"bytes32"},{"name":"preVerificationGas","type":"uint256","internalType":"uint256"},{"name":"gasFees","type":"bytes32","internalType":"bytes32"},{"name":"paymasterAndData","type":"bytes","internalType":"bytes"},{"name":"signature","type":"bytes","internalType":"bytes"}]},{"name":"userOpHash","type":"bytes32","internalType":"bytes32"}],"outputs":[{"name":"validationData","type":"uint256","internalType":"uint256"}],"stateMutability":"payable"},{"type":"event","name":"EIP712DomainChanged","inputs":[],"anonymous":false},{"type":"event","name":"OwnershipTransferred","inputs":[{"name":"previousOwner","type":"address","indexed":true,"internalType":"address"},{"name":"newOwner","type":"address","indexed":true,"internalType":"address"}],"anonymous":false},{"type":"event","name":"Paused","inputs":[{"name":"account","type":"address","indexed":false,"internalType":"address"}],"anonymous":false},{"type":"event","name":"PermissionGranted","inputs":[{"name":"agentId","type":"bytes32","indexed":true,"internalType":"bytes32"},{"name":"grantHash","type":"bytes32","indexed":true,"internalType":"bytes32"},{"name":"validUntil","type":"uint48","indexed":false,"internalType":"uint48"}],"anonymous":false},{"type":"event","name":"PermissionRevoked","inputs":[{"name":"agentId","type":"bytes32","indexed":true,"internalType":"bytes32"},{"name":"revokedBy","type":"address","indexed":true,"internalType":"address"}],"anonymous":false},{"type":"event","name":"PermissionViolation","inputs":[{"name":"agentId","type":"bytes32","indexed":true,"internalType":"bytes32"},{"name":"target","type":"address","indexed":true,"internalType":"address"},{"name":"selector","type":"bytes4","indexed":false,"internalType":"bytes4"},{"name":"violationType","type":"string","indexed":false,"internalType":"string"}],"anonymous":false},{"type":"event","name":"Unpaused","inputs":[{"name":"account","type":"address","indexed":false,"internalType":"address"}],"anonymous":false},{"type":"error","name":"ECDSAInvalidSignature","inputs":[]},{"type":"error","name":"ECDSAInvalidSignatureLength","inputs":[{"name":"length","type":"uint256","internalType":"uint256"}]},{"type":"error","name":"ECDSAInvalidSignatureS","inputs":[{"name":"s","type":"bytes32","internalType":"bytes32"}]},{"type":"error","name":"EnforcedPause","inputs":[]},{"type":"error","name":"ExpectedPause","inputs":[]},{"type":"error","name":"InvalidShortString","inputs":[]},{"type":"error","name":"OwnableInvalidOwner","inputs":[{"name":"owner","type":"address","internalType":"address"}]},{"type":"error","name":"OwnableUnauthorizedAccount","inputs":[{"name":"account","type":"address","internalType":"address"}]},{"type":"error","name":"ReentrancyGuardReentrantCall","inputs":[]},{"type":"error","name":"StringTooLong","inputs":[{"name":"str","type":"string","internalType":"string"}]}],"bytecode":{"object":"0x6101e060405234801562000011575f80fd5b506040516200386c3803806200386c8339810160408190526200003491620002a2565b604080518082018252601781527f426f75636c6965725065726d697373696f6e5661756c74000000000000000000602080830191909152825180840190935260018352603160f81b9083015290866001600160a01b038116620000b157604051631e4fbdf760e01b81525f60048201526024015b60405180910390fd5b620000bc81620001bd565b5060017f9b779b17422d0df92223018b32b4d1fa46e071723d6817e2486d003becc55f0055620000ee8260016200020c565b61012052620000ff8160026200020c565b61014052815160208084019190912060e052815190820120610100524660a0526200018c60e05161010051604080517f8b73c3c69bb8fe3d512ecc4cf759cc79239f7b179b0ffacaa9a75d522b39400f60208201529081019290925260608201524660808201523060a08201525f9060c00160405160208183030381529060405280519060200120905090565b60805250503060c0526001600160a01b03938416610160529183166101805282166101a052166101c05250620004ea565b5f80546001600160a01b038381166001600160a01b0319831681178455604051919092169283917f8be0079c531659141344cd1fd0a4f28419497f9722a3daafe3b4186f6b6457e09190a35050565b5f6020835110156200022b57620002238362000244565b90506200023e565b81620002388482620003ac565b5060ff90505b92915050565b5f80829050601f8151111562000271578260405163305a27a960e01b8152600401620000a8919062000478565b80516200027e82620004c6565b179392505050565b80516001600160a01b03811681146200029d575f80fd5b919050565b5f805f805f60a08688031215620002b7575f80fd5b620002c28662000286565b9450620002d26020870162000286565b9350620002e26040870162000286565b9250620002f26060870162000286565b9150620003026080870162000286565b90509295509295909350565b634e487b7160e01b5f52604160045260245ffd5b600181811c908216806200033757607f821691505b6020821081036200035657634e487b7160e01b5f52602260045260245ffd5b50919050565b601f821115620003a757805f5260205f20601f840160051c81016020851015620003835750805b601f840160051c820191505b81811015620003a4575f81556001016200038f565b50505b505050565b81516001600160401b03811115620003c857620003c86200030e565b620003e081620003d9845462000322565b846200035c565b602080601f83116001811462000416575f8415620003fe5750858301515b5f19600386901b1c1916600185901b17855562000470565b5f85815260208120601f198616915b82811015620004465788860151825594840194600190910190840162000425565b50858210156200046457878501515f19600388901b60f8161c191681555b505060018460011b0185555b505050505050565b5f602080835283518060208501525f5b81811015620004a65785810183015185820160400152820162000488565b505f604082860101526040601f19601f8301168501019250505092915050565b8051602080830151919081101562000356575f1960209190910360031b1b16919050565b60805160a05160c05160e05161010051610120516101405161016051610180516101a0516101c0516132b4620005b85f395f818161017b01528181611923015261206301525f81816103920152818161168801528181611785015261186101525f8181610404015281816107f1015261131301525f81816101c6015281816106fa015281816108d60152818161114d0152818161125401526119e201525f611e1001525f611de301525f611bfd01525f611bd501525f611b3001525f611b5a01525f611b8401526132b45ff3fe608060405260043610610131575f3560e01c80637304659f116100a8578063970032031161006d578063970032031461036e578063ba2d386814610381578063e89005c7146103b4578063ecd05961146103d3578063f0f2740d146103f3578063f2fde38b14610426575f80fd5b80637304659f146102f85780638456cb591461031757806384b0196e1461032b5780638a91b0e3146102c65780638da5cb5b14610352575f80fd5b80633f4ba83a116100f95780633f4ba83a1461022b5780634879e0db1461023f5780635c975abb1461026a5780635d2650ad146102935780636d61fe70146102c6578063715018a6146102e4575f80fd5b806302379185146101355780630921224b1461016a5780630d1cfcae146101b557806316918fc6146101e85780633644e51514610209575b5f80fd5b348015610140575f80fd5b5061015461014f366004612780565b610445565b6040516101619190612813565b60405180910390f35b348015610175575f80fd5b5061019d7f000000000000000000000000000000000000000000000000000000000000000081565b6040516001600160a01b039091168152602001610161565b3480156101c0575f80fd5b5061019d7f000000000000000000000000000000000000000000000000000000000000000081565b3480156101f3575f80fd5b50610207610202366004612780565b6106e2565b005b348015610214575f80fd5b5061021d610885565b604051908152602001610161565b348015610236575f80fd5b50610207610893565b34801561024a575f80fd5b5061021d610259366004612780565b60046020525f908152604090205481565b348015610275575f80fd5b505f54600160a01b900460ff165b6040519015158152602001610161565b34801561029e575f80fd5b5061021d7f3349101366637745e44024e5a8a50b4b179b6978ce58156d2da451fc99c5912e81565b3480156102d1575f80fd5b506102076102e03660046129ae565b5050565b3480156102ef575f80fd5b506102076108a5565b348015610303575f80fd5b506102076103123660046129ec565b6108b6565b348015610322575f80fd5b50610207611069565b348015610336575f80fd5b5061033f611079565b6040516101619796959493929190612aab565b34801561035d575f80fd5b505f546001600160a01b031661019d565b61021d61037c366004612b42565b6110bb565b34801561038c575f80fd5b5061019d7f000000000000000000000000000000000000000000000000000000000000000081565b3480156103bf575f80fd5b506102076103ce366004612780565b6119ca565b3480156103de575f80fd5b506102836103ed366004612780565b60011490565b3480156103fe575f80fd5b5061019d7f000000000000000000000000000000000000000000000000000000000000000081565b348015610431575f80fd5b50610207610440366004612b9c565b611ae7565b60408051610200810182525f808252606060208301819052928201839052828201929092526080810182905260a0810182905260c0810182905260e08101829052610100810182905261012081018290526101408101829052610160810182905261018081018290526101a081018290526101c081018290526101e08101919091525f82815260036020908152604091829020825161020081018452815481526001820180548551818602810186019096528086529194929385810193929083018282801561053b57602002820191905f5260205f20905b81546001600160a01b0316815260019091019060200180831161051d575b50505050508152602001600282018054806020026020016040519081016040528092919081815260200182805480156105bd57602002820191905f5260205f20905f905b82829054906101000a900460e01b6001600160e01b0319168152602001906004019060208260030104928301926001038202915080841161057f5790505b505050505081526020016003820180548060200260200160405190810160405280929190818152602001828054801561061d57602002820191905f5260205f20905b81546001600160a01b031681526001909101906020018083116105ff575b50505091835250506004820154602082015260058201546040820152600682015465ffffffffffff8082166060840152600160301b8204166080830152600160601b810460ff908116151560a0840152600160681b82048116151560c0840152600160701b9091048116151560e083015260078301546101008084019190915260089093015480821661012084015292830481166101408301526201000083041661016082015263010000009091046001600160401b03166101809091015292915050565b604051635c23bdf560e01b8152600481018290525f907f00000000000000000000000000000000000000000000000000000000000000006001600160a01b031690635c23bdf5906024015f60405180830381865afa158015610746573d5f803e3d5ffd5b505050506040513d5f823e601f3d908101601f1916820160405261076d9190810190612cdc565b60208101519091506001600160a01b031633148061079457505f546001600160a01b031633145b6107b95760405162461bcd60e51b81526004016107b090612de6565b60405180910390fd5b5f8281526003602052604090819020600601805460ff60701b1916600160701b1790555163b032b71360e01b81526001600160a01b037f0000000000000000000000000000000000000000000000000000000000000000169063b032b713906108289085906004908101612e2f565b5f604051808303815f87803b15801561083f575f80fd5b505af1158015610851573d5f803e3d5ffd5b50506040513392508491507f93f50f299c97f9dbc6c8c8193bc0d1072f9ed27d38a021fc70fb48f6c86dcc61905f90a35050565b5f61088e611b24565b905090565b61089b611c4d565b6108a3611c79565b565b6108ad611c4d565b6108a35f611ccd565b6108be611d1c565b604051635c23bdf560e01b8152600481018590525f907f00000000000000000000000000000000000000000000000000000000000000006001600160a01b031690635c23bdf5906024015f60405180830381865afa158015610922573d5f803e3d5ffd5b505050506040513d5f823e601f3d908101601f191682016040526109499190810190612cdc565b60208101519091506001600160a01b03166109a65760405162461bcd60e51b815260206004820181905260248201527f5065726d697373696f6e5661756c743a206167656e74206e6f7420666f756e6460448201526064016107b0565b60208101516001600160a01b03163314806109ca57505f546001600160a01b031633145b6109e65760405162461bcd60e51b81526004016107b090612de6565b83358514610a405760405162461bcd60e51b815260206004820152602160248201527f5065726d697373696f6e5661756c743a206167656e744964206d69736d6174636044820152600d60fb1b60648201526084016107b0565b42610a52610100860160e08701612ea3565b65ffffffffffff1611610ab65760405162461bcd60e51b815260206004820152602660248201527f5065726d697373696f6e5661756c743a2073636f706520616c726561647920656044820152651e1c1a5c995960d21b60648201526084016107b0565b5f85815260046020526040812080549082610ad083612ed2565b9091555090505f7f3349101366637745e44024e5a8a50b4b179b6978ce58156d2da451fc99c5912e8783608089013560a08a0135610b1460e08c0160c08d01612ea3565b610b256101008d0160e08e01612ea3565b610b376101208e016101008f01612ef7565b8d610120016020810190610b4b9190612ef7565b60408051602081019a909a528901979097526060880195909552608087019390935260a086019190915265ffffffffffff90811660c08601521660e084015215156101008301521515610120820152610140016040516020818303038152906040528051906020012090505f610bc082611d46565b90505f610c0487878080601f0160208091040260200160405190810160405280939291908181526020018383808284375f920191909152508693925050611d729050565b905084602001516001600160a01b0316816001600160a01b031614610c7c5760405162461bcd60e51b815260206004820152602860248201527f5065726d697373696f6e5661756c743a20696e76616c6964206f776e6572207360448201526769676e617475726560c01b60648201526084016107b0565b5f898152600360205260409020883581556080890135600482015560a08901356005820155610cb160e08a0160c08b01612ea3565b60068201805465ffffffffffff191665ffffffffffff92909216919091179055610ce26101008a0160e08b01612ea3565b60068201805465ffffffffffff92909216600160301b026bffffffffffff00000000000019909216919091179055610d226101208a016101008b01612ef7565b600682018054911515600160601b0260ff60601b19909216919091179055610d526101408a016101208b01612ef7565b60068201805461ffff60681b1916600160681b9215159290920260ff60701b1916919091179055610d8b6101a08a016101808b01612f12565b60088201805460ff191660ff92909216919091179055610db36101c08a016101a08b01612f12565b60088201805460ff929092166101000261ff0019909216919091179055610de26101e08a016101c08b01612f12565b60088201805460ff92909216620100000262ff000019909216919091179055610e136102008a016101e08b01612f32565b6008820180546001600160401b03929092166301000000026affffffffffffffff0000001990921691909117905560078101839055610e55600182015f61272f565b5f5b610e6460208b018b612f58565b9050811015610eda5760018201610e7e60208c018c612f58565b83818110610e8e57610e8e612f9d565b9050602002016020810190610ea39190612b9c565b8154600180820184555f93845260209093200180546001600160a01b0319166001600160a01b039290921691909117905501610e57565b50610ee8600282015f61274a565b5f5b610ef760408b018b612f58565b9050811015610f7b5760028201610f1160408c018c612f58565b83818110610f2157610f21612f9d565b9050602002016020810190610f369190612fb1565b8154600180820184555f93845260209093206008820401805463ffffffff60079093166004026101000a928302191660e09390931c9190910291909117905501610eea565b50610f89600382015f61272f565b5f5b610f9860608b018b612f58565b905081101561100e5760038201610fb260608c018c612f58565b83818110610fc257610fc2612f9d565b9050602002016020810190610fd79190612b9c565b8154600180820184555f93845260209093200180546001600160a01b0319166001600160a01b039290921691909117905501610f8b565b50828a7fb8cfdeea9e1b81515057ad60c48086db86937074122a870668629709109b8cef6110436101008d0160e08e01612ea3565b60405165ffffffffffff909116815260200160405180910390a350505050505050505050565b611071611c4d565b6108a3611d9a565b5f6060805f805f606061108a611ddc565b611092611e09565b604080515f80825260208201909252600f60f81b9b939a50919850469750309650945092509050565b5f6110c4611e36565b6110cc611d1c565b5f8080806110e56110e06060890189612fd8565b611e64565b929650909450925090505f6110fd6020890189612b9c565b604080516001600160a01b039283166020820152918716908201526001600160e01b0319851660608201526080810188905260a0016040516020818303038152906040528051906020012090505f7f00000000000000000000000000000000000000000000000000000000000000006001600160a01b031663042324b68a5f01602081019061118c9190612b9c565b6040516001600160e01b031960e084901b1681526001600160a01b039091166004820152602401602060405180830381865afa1580156111ce573d5f803e3d5ffd5b505050506040513d601f19601f820116820180604052508101906111f2919061301a565b90508061123e57611231818787604051806040016040528060148152602001731051d1539517d393d517d49151d254d51154915160621b815250612001565b965050505050505061199b565b60405163170da40760e21b8152600481018290527f00000000000000000000000000000000000000000000000000000000000000006001600160a01b031690635c36901c90602401602060405180830381865afa1580156112a1573d5f803e3d5ffd5b505050506040513d601f19601f820116820180604052508101906112c59190613031565b6112fd576112318187876040518060400160405280601081526020016f4147454e545f4e4f545f41435449564560801b815250612001565b604051634294857f60e01b8152600481018290527f00000000000000000000000000000000000000000000000000000000000000006001600160a01b031690634294857f90602401602060405180830381865afa158015611360573d5f803e3d5ffd5b505050506040513d601f19601f820116820180604052508101906113849190613031565b156113ba576112318187876040518060400160405280600d81526020016c1051d1539517d4915593d2d151609a1b815250612001565b5f818152600360205260409020805461140e576114008288886040518060400160405280600f81526020016e4e4f5f4143544956455f53434f504560881b815250612001565b97505050505050505061199b565b6006810154600160701b900460ff1615611453576114008288886040518060400160405280600d81526020016c14d0d3d41157d4915593d2d151609a1b815250612001565b600681015465ffffffffffff1642108061147f57506006810154600160301b900465ffffffffffff1642115b156114b5576114008288886040518060400160405280600d81526020016c14d0d3d41157d1561412549151609a1b815250612001565b6006810154600160601b900460ff161580156114db57506114d981600101886120f2565b155b156115185761140082888860405180604001604052806014815260200173141493d513d0d3d317d393d517d0531313d5d15160621b815250612001565b60028101541580159061153557506115338160020187612152565b155b15611572576114008288886040518060400160405280601481526020017314d1531150d513d497d393d517d0531313d5d15160621b815250612001565b6006810154600160681b900460ff16158015611598575061159681600301866120f2565b155b156115d257611400828888604051806040016040528060118152602001701513d2d15397d393d517d0531313d5d151607a1b815250612001565b600881015462010000900460ff161515806115fc5750600881015460ff8082166101009092041614155b156116455761160a816121c0565b61164557611400828888604051806040016040528060138152602001724f5554534944455f54494d455f57494e444f5760681b815250612001565b5f6001600160a01b0386161580159061165d57505f85115b156116f357604051637d3b6e7960e11b81526001600160a01b038781166004830152602482018790527f0000000000000000000000000000000000000000000000000000000000000000169063fa76dcf290604401602060405180830381865afa9250505080156116eb575060408051601f3d908101601f191682019092526116e89181019061301a565b60015b156116f35790505b5f82600501541180156117095750816005015481115b15611754576117458389896040518060400160405280601381526020017214115497d51617d0d05417d15610d151511151606a1b815250612001565b9850505050505050505061199b565b6004820154156118305760048281015460405163f2cc855360e01b81529182018590526024820183905260448201527f00000000000000000000000000000000000000000000000000000000000000006001600160a01b03169063f2cc855390606401602060405180830381865afa1580156117d2573d5f803e3d5ffd5b505050506040513d601f19601f820116820180604052508101906117f69190613031565b6118305761174583898960405180604001604052806012815260200171111052531657d0d05417d15610d15151115160721b815250612001565b80156118c1576040516316a5c8d160e21b8152600481018490526024810182905265ffffffffffff421660448201527f00000000000000000000000000000000000000000000000000000000000000006001600160a01b031690635a972344906064015f604051808303815f87803b1580156118aa575f80fd5b505af11580156118bc573d5f803e3d5ffd5b505050505b604051632bfbde5560e11b815260048101849052602481018590526001600160a01b0389811660448301526001600160e01b031989166064830152878116608483015260a48201839052600160c483015261010060e48301525f6101048301527f000000000000000000000000000000000000000000000000000000000000000016906357f7bcaa90610124016020604051808303815f875af115801561196a573d5f803e3d5ffd5b505050506040513d601f19601f8201168201806040525081019061198e919061301a565b505f985050505050505050505b6119c460017f9b779b17422d0df92223018b32b4d1fa46e071723d6817e2486d003becc55f0055565b92915050565b604051635c23bdf560e01b8152600481018290525f907f00000000000000000000000000000000000000000000000000000000000000006001600160a01b031690635c23bdf5906024015f60405180830381865afa158015611a2e573d5f803e3d5ffd5b505050506040513d5f823e601f3d908101601f19168201604052611a559190810190612cdc565b60208101519091506001600160a01b0316331480611a7c57505f546001600160a01b031633145b611a985760405162461bcd60e51b81526004016107b090612de6565b5f82815260036020526040808220600601805460ff60701b1916600160701b17905551339184917f93f50f299c97f9dbc6c8c8193bc0d1072f9ed27d38a021fc70fb48f6c86dcc619190a35050565b611aef611c4d565b6001600160a01b038116611b1857604051631e4fbdf760e01b81525f60048201526024016107b0565b611b2181611ccd565b50565b5f306001600160a01b037f000000000000000000000000000000000000000000000000000000000000000016148015611b7c57507f000000000000000000000000000000000000000000000000000000000000000046145b15611ba657507f000000000000000000000000000000000000000000000000000000000000000090565b61088e604080517f8b73c3c69bb8fe3d512ecc4cf759cc79239f7b179b0ffacaa9a75d522b39400f60208201527f0000000000000000000000000000000000000000000000000000000000000000918101919091527f000000000000000000000000000000000000000000000000000000000000000060608201524660808201523060a08201525f9060c00160405160208183030381529060405280519060200120905090565b5f546001600160a01b031633146108a35760405163118cdaa760e01b81523360048201526024016107b0565b611c816122ea565b5f805460ff60a01b191690557f5db9ee0a495bf2e6ff9c91a7834c1ba4fdd244a5e8aa4e537bd38aeae4b073aa335b6040516001600160a01b03909116815260200160405180910390a1565b5f80546001600160a01b038381166001600160a01b0319831681178455604051919092169283917f8be0079c531659141344cd1fd0a4f28419497f9722a3daafe3b4186f6b6457e09190a35050565b5f54600160a01b900460ff16156108a35760405163d93c066560e01b815260040160405180910390fd5b5f6119c4611d52611b24565b8360405161190160f01b8152600281019290925260228201526042902090565b5f805f80611d808686612313565b925092509250611d90828261235c565b5090949350505050565b611da2611d1c565b5f805460ff60a01b1916600160a01b1790557f62e78cea01bee320cd4e420270b5ea74000d11b0c9f74754ebdbfc544b05a258611cb03390565b606061088e7f00000000000000000000000000000000000000000000000000000000000000006001612414565b606061088e7f00000000000000000000000000000000000000000000000000000000000000006002612414565b611e3e6124bd565b60027f9b779b17422d0df92223018b32b4d1fa46e071723d6817e2486d003becc55f0055565b5f8080806004851015611e8157505f925082915081905080611ff8565b5f611e8f600482888a61304c565b611e9891613073565b90506001600160e01b03198116635b0e93fb60e11b148015611ebb575060448610155b15611fec575f6060611ed0886004818c61304c565b810190611edd91906130a3565b80519299509093509150600411611fe457601881600381518110611f0357611f03612f9d565b016020015182516001600160f81b031990911690911c9060109083906002908110611f3057611f30612f9d565b016020015183516001600160f81b031990911690911c9060089084906001908110611f5d57611f5d612f9d565b016020015184516001600160f81b031990911690911c9084905f90611f8457611f84612f9d565b01602001516001600160f81b03191617171795506001600160e01b0319861663a9059cbb60e01b148015611fba57506044815110155b15611fe457869450611fcd8160046124ff565b806020019051810190611fe09190613132565b9450505b505050611ff8565b5f945092508391508190505b92959194509250565b5f836001600160a01b0316857f5d34291de86e0944a7119f53701051d6efaeef7b54accb2df8a9b00ac3a52537858560405161203e92919061315e565b60405180910390a384156120e757604051632bfbde5560e11b81526001600160a01b037f000000000000000000000000000000000000000000000000000000000000000016906357f7bcaa906120a69088905f90899089908390819081908c9060040161317f565b6020604051808303815f875af19250505080156120e0575060408051601f3d908101601f191682019092526120dd9181019061301a565b60015b156120e757505b506001949350505050565b81545f90815b8181101561214857836001600160a01b031685828154811061211c5761211c612f9d565b5f918252602090912001546001600160a01b031603612140576001925050506119c4565b6001016120f8565b505f949350505050565b81545f90815b8181101561214857836001600160e01b03191685828154811061217d5761217d612f9d565b905f5260205f2090600891828204019190066004029054906101000a900460e01b6001600160e01b031916036121b8576001925050506119c4565b600101612158565b60088101545f9062010000900460ff1615612224575f60076121e562015180426131fa565b6121f090600361320d565b6121fa9190613220565b600884015490915060ff6201000090910481169082161c6001165f0361222257505f92915050565b505b600882015460ff80821661010090920416146122e2575f610e1061224b6201518042613220565b61225591906131fa565b600884015490915060ff61010082048116911610156122a957600883015460ff90811690821610806122975750600883015460ff610100909104811690821610155b156122a457505f92915050565b6122e0565b600883015460ff9081169082161080156122d35750600883015460ff610100909104811690821610155b156122e057505f92915050565b505b506001919050565b5f54600160a01b900460ff166108a357604051638dfc202b60e01b815260040160405180910390fd5b5f805f835160410361234a576020840151604085015160608601515f1a61233c88828585612603565b955095509550505050612355565b505081515f91506002905b9250925092565b5f82600381111561236f5761236f612e1b565b03612378575050565b600182600381111561238c5761238c612e1b565b036123aa5760405163f645eedf60e01b815260040160405180910390fd5b60028260038111156123be576123be612e1b565b036123df5760405163fce698f760e01b8152600481018290526024016107b0565b60038260038111156123f3576123f3612e1b565b036102e0576040516335e2f38360e21b8152600481018290526024016107b0565b606060ff831461242e57612427836126cb565b90506119c4565b81805461243a90613233565b80601f016020809104026020016040519081016040528092919081815260200182805461246690613233565b80156124b15780601f10612488576101008083540402835291602001916124b1565b820191905f5260205f20905b81548152906001019060200180831161249457829003601f168201915b505050505090506119c4565b7f9b779b17422d0df92223018b32b4d1fa46e071723d6817e2486d003becc55f00546002036108a357604051633ee5aeb560e01b815260040160405180910390fd5b606081835110156125485760405162461bcd60e51b8152602060048201526013602482015272736c696365206f7574206f6620626f756e647360681b60448201526064016107b0565b5f828451612556919061326b565b6001600160401b0381111561256d5761256d612bbe565b6040519080825280601f01601f191660200182016040528015612597576020820181803683370190505b5090505f5b81518110156125fb57846125b0828661320d565b815181106125c0576125c0612f9d565b602001015160f81c60f81b8282815181106125dd576125dd612f9d565b60200101906001600160f81b03191690815f1a90535060010161259c565b509392505050565b5f80807f7fffffffffffffffffffffffffffffff5d576e7357a4501ddfe92f46681b20a084111561263c57505f915060039050826126c1565b604080515f808252602082018084528a905260ff891692820192909252606081018790526080810186905260019060a0016020604051602081039080840390855afa15801561268d573d5f803e3d5ffd5b5050604051601f1901519150506001600160a01b0381166126b857505f9250600191508290506126c1565b92505f91508190505b9450945094915050565b60605f6126d783612708565b6040805160208082528183019092529192505f91906020820181803683375050509182525060208101929092525090565b5f60ff8216601f8111156119c457604051632cd44ac360e21b815260040160405180910390fd5b5080545f8255905f5260205f2090810190611b219190612768565b5080545f825560070160089004905f5260205f2090810190611b2191905b5b8082111561277c575f8155600101612769565b5090565b5f60208284031215612790575f80fd5b5035919050565b5f815180845260208085019450602084015f5b838110156127cf5781516001600160a01b0316875295820195908201906001016127aa565b509495945050505050565b5f815180845260208085019450602084015f5b838110156127cf5781516001600160e01b031916875295820195908201906001016127ed565b60208152815160208201525f602083015161020080604085015261283b610220850183612797565b91506040850151601f198086850301606087015261285984836127da565b93506060870151915080868503016080870152506128778382612797565b925050608085015160a085015260a085015160c085015260c08501516128a760e086018265ffffffffffff169052565b5060e08501516101006128c38187018365ffffffffffff169052565b86015190506101206128d88682018315159052565b86015190506101406128ed8682018315159052565b86015190506101606129028682018315159052565b8601516101808681019190915286015190506101a06129258187018360ff169052565b86015190506101c061293b8682018360ff169052565b86015190506101e06129518682018360ff169052565b909501516001600160401b031693019290925250919050565b5f8083601f84011261297a575f80fd5b5081356001600160401b03811115612990575f80fd5b6020830191508360208285010111156129a7575f80fd5b9250929050565b5f80602083850312156129bf575f80fd5b82356001600160401b038111156129d4575f80fd5b6129e08582860161296a565b90969095509350505050565b5f805f80606085870312156129ff575f80fd5b8435935060208501356001600160401b0380821115612a1c575f80fd5b908601906102008289031215612a30575f80fd5b90935060408601359080821115612a45575f80fd5b50612a528782880161296a565b95989497509550505050565b5f5b83811015612a78578181015183820152602001612a60565b50505f910152565b5f8151808452612a97816020860160208601612a5e565b601f01601f19169290920160200192915050565b60ff60f81b881681525f602060e06020840152612acb60e084018a612a80565b8381036040850152612add818a612a80565b606085018990526001600160a01b038816608086015260a0850187905284810360c0860152855180825260208088019350909101905f5b81811015612b3057835183529284019291840191600101612b14565b50909c9b505050505050505050505050565b5f8060408385031215612b53575f80fd5b82356001600160401b03811115612b68575f80fd5b83016101208186031215612b7a575f80fd5b946020939093013593505050565b6001600160a01b0381168114611b21575f80fd5b5f60208284031215612bac575f80fd5b8135612bb781612b88565b9392505050565b634e487b7160e01b5f52604160045260245ffd5b60405161012081016001600160401b0381118282101715612bf557612bf5612bbe565b60405290565b604051601f8201601f191681016001600160401b0381118282101715612c2357612c23612bbe565b604052919050565b8051612c3681612b88565b919050565b805160038110612c36575f80fd5b65ffffffffffff81168114611b21575f80fd5b8051612c3681612c49565b5f6001600160401b03821115612c7f57612c7f612bbe565b50601f01601f191660200190565b5f82601f830112612c9c575f80fd5b8151612caf612caa82612c67565b612bfb565b818152846020838601011115612cc3575f80fd5b612cd4826020830160208701612a5e565b949350505050565b5f60208284031215612cec575f80fd5b81516001600160401b0380821115612d02575f80fd5b908301906101208286031215612d16575f80fd5b612d1e612bd2565b612d2783612c2b565b8152612d3560208401612c2b565b6020820152612d4660408401612c3b565b6040820152612d5760608401612c5c565b60608201526080830151608082015260a083015182811115612d77575f80fd5b612d8387828601612c8d565b60a08301525060c083015182811115612d9a575f80fd5b612da687828601612c8d565b60c08301525060e083015160e08201526101008084015183811115612dc9575f80fd5b612dd588828701612c8d565b918301919091525095945050505050565b6020808252818101527f5065726d697373696f6e5661756c743a206e6f74206167656e74206f776e6572604082015260600190565b634e487b7160e01b5f52602160045260245ffd5b8281525f60058310612e4f57634e487b7160e01b5f52602160045260245ffd5b82602083015260606040830152602460608301527f656d657267656e6379207265766f6b6520766961205065726d697373696f6e56608083015263185d5b1d60e21b60a083015260c0820190509392505050565b5f60208284031215612eb3575f80fd5b8135612bb781612c49565b634e487b7160e01b5f52601160045260245ffd5b5f60018201612ee357612ee3612ebe565b5060010190565b8015158114611b21575f80fd5b5f60208284031215612f07575f80fd5b8135612bb781612eea565b5f60208284031215612f22575f80fd5b813560ff81168114612bb7575f80fd5b5f60208284031215612f42575f80fd5b81356001600160401b0381168114612bb7575f80fd5b5f808335601e19843603018112612f6d575f80fd5b8301803591506001600160401b03821115612f86575f80fd5b6020019150600581901b36038213156129a7575f80fd5b634e487b7160e01b5f52603260045260245ffd5b5f60208284031215612fc1575f80fd5b81356001600160e01b031981168114612bb7575f80fd5b5f808335601e19843603018112612fed575f80fd5b8301803591506001600160401b03821115613006575f80fd5b6020019150368190038213156129a7575f80fd5b5f6020828403121561302a575f80fd5b5051919050565b5f60208284031215613041575f80fd5b8151612bb781612eea565b5f808585111561305a575f80fd5b83861115613066575f80fd5b5050820193919092039150565b6001600160e01b0319813581811691600485101561309b5780818660040360031b1b83161692505b505092915050565b5f805f606084860312156130b5575f80fd5b83356130c081612b88565b92506020840135915060408401356001600160401b038111156130e1575f80fd5b8401601f810186136130f1575f80fd5b80356130ff612caa82612c67565b818152876020838501011115613113575f80fd5b816020840160208301375f602083830101528093505050509250925092565b5f8060408385031215613143575f80fd5b825161314e81612b88565b6020939093015192949293505050565b63ffffffff60e01b83168152604060208201525f612cd46040830184612a80565b888152602081018890526001600160a01b0387811660408301526001600160e01b0319871660608301528516608082015260a0810184905282151560c082015261010060e082018190525f906131d783820185612a80565b9b9a5050505050505050505050565b634e487b7160e01b5f52601260045260245ffd5b5f82613208576132086131e6565b500490565b808201808211156119c4576119c4612ebe565b5f8261322e5761322e6131e6565b500690565b600181811c9082168061324757607f821691505b60208210810361326557634e487b7160e01b5f52602260045260245ffd5b50919050565b818103818111156119c4576119c4612ebe56fea2646970667358221220caa11817095b7e9af0a0c3fe80d3c9bdd4a0e36f71d6db1791c086c8be994a3a64736f6c63430008180033","linkReferences":{}},"methodIdentifiers":{"DOMAIN_SEPARATOR()":"3644e515","SCOPE_TYPEHASH()":"5d2650ad","agentRegistry()":"0d1cfcae","auditLogger()":"0921224b","eip712Domain()":"84b0196e","emergencyRevoke(bytes32)":"16918fc6","getActiveScope(bytes32)":"02379185","grantNonces(bytes32)":"4879e0db","grantPermission(bytes32,(bytes32,address[],bytes4[],address[],uint256,uint256,uint48,uint48,bool,bool,bool,bytes32,uint8,uint8,uint8,uint64),bytes)":"7304659f","isModuleType(uint256)":"ecd05961","onInstall(bytes)":"6d61fe70","onUninstall(bytes)":"8a91b0e3","owner()":"8da5cb5b","pause()":"8456cb59","paused()":"5c975abb","renounceOwnership()":"715018a6","revocationRegistry()":"f0f2740d","revokePermission(bytes32)":"e89005c7","spendTracker()":"ba2d3868","transferOwnership(address)":"f2fde38b","unpause()":"3f4ba83a","validateUserOp((address,uint256,bytes,bytes,bytes32,uint256,bytes32,bytes,bytes),bytes32)":"97003203"},"id":41}