{"abi":[{"type":"constructor","inputs":[{"name":"admin","type":"address","internalType":"address"}],"stateMutability":"nonpayable"},{"type":"function","name":"DEFAULT_ADMIN_ROLE","inputs":[],"outputs":[{"name":"","type":"bytes32","internalType":"bytes32"}],"stateMutability":"view"},{"type":"function","name":"GUARDIAN_ROLE","inputs":[],"outputs":[{"name":"","type":"bytes32","internalType":"bytes32"}],"stateMutability":"view"},{"type":"function","name":"REINSTATEMENT_DELAY","inputs":[],"outputs":[{"name":"","type":"uint48","internalType":"uint48"}],"stateMutability":"view"},{"type":"function","name":"REVOKER_ROLE","inputs":[],"outputs":[{"name":"","type":"bytes32","internalType":"bytes32"}],"stateMutability":"view"},{"type":"function","name":"batchRevoke","inputs":[{"name":"agentIds","type":"bytes32[]","internalType":"bytes32[]"},{"name":"reason","type":"uint8","internalType":"enum RevocationReason"},{"name":"notes","type":"string","internalType":"string"}],"outputs":[],"stateMutability":"nonpayable"},{"type":"function","name":"emergencyReinstate","inputs":[{"name":"agentId","type":"bytes32","internalType":"bytes32"},{"name":"notes","type":"string","internalType":"string"}],"outputs":[],"stateMutability":"nonpayable"},{"type":"function","name":"getRevocationRecord","inputs":[{"name":"agentId","type":"bytes32","internalType":"bytes32"}],"outputs":[{"name":"","type":"tuple","internalType":"struct RevocationRecord","components":[{"name":"revoked","type":"bool","internalType":"bool"},{"name":"revokedAt","type":"uint48","internalType":"uint48"},{"name":"reinstatedAt","type":"uint48","internalType":"uint48"},{"name":"revokedBy","type":"address","internalType":"address"},{"name":"reason","type":"uint8","internalType":"enum RevocationReason"},{"name":"notes","type":"string","internalType":"string"}]}],"stateMutability":"view"},{"type":"function","name":"getRoleAdmin","inputs":[{"name":"role","type":"bytes32","internalType":"bytes32"}],"outputs":[{"name":"","type":"bytes32","internalType":"bytes32"}],"stateMutability":"view"},{"type":"function","name":"grantRole","inputs":[{"name":"role","type":"bytes32","internalType":"bytes32"},{"name":"account","type":"address","internalType":"address"}],"outputs":[],"stateMutability":"nonpayable"},{"type":"function","name":"hasRole","inputs":[{"name":"role","type":"bytes32","internalType":"bytes32"},{"name":"account","type":"address","internalType":"address"}],"outputs":[{"name":"","type":"bool","internalType":"bool"}],"stateMutability":"view"},{"type":"function","name":"isRevoked","inputs":[{"name":"agentId","type":"bytes32","internalType":"bytes32"}],"outputs":[{"name":"","type":"bool","internalType":"bool"}],"stateMutability":"view"},{"type":"function","name":"pause","inputs":[],"outputs":[],"stateMutability":"nonpayable"},{"type":"function","name":"paused","inputs":[],"outputs":[{"name":"","type":"bool","internalType":"bool"}],"stateMutability":"view"},{"type":"function","name":"reinstate","inputs":[{"name":"agentId","type":"bytes32","internalType":"bytes32"},{"name":"notes","type":"string","internalType":"string"}],"outputs":[],"stateMutability":"nonpayable"},{"type":"function","name":"renounceRole","inputs":[{"name":"role","type":"bytes32","internalType":"bytes32"},{"name":"callerConfirmation","type":"address","internalType":"address"}],"outputs":[],"stateMutability":"nonpayable"},{"type":"function","name":"revoke","inputs":[{"name":"agentId","type":"bytes32","internalType":"bytes32"},{"name":"reason","type":"uint8","internalType":"enum RevocationReason"},{"name":"notes","type":"string","internalType":"string"}],"outputs":[],"stateMutability":"nonpayable"},{"type":"function","name":"revokeRole","inputs":[{"name":"role","type":"bytes32","internalType":"bytes32"},{"name":"account","type":"address","internalType":"address"}],"outputs":[],"stateMutability":"nonpayable"},{"type":"function","name":"supportsInterface","inputs":[{"name":"interfaceId","type":"bytes4","internalType":"bytes4"}],"outputs":[{"name":"","type":"bool","internalType":"bool"}],"stateMutability":"view"},{"type":"function","name":"unpause","inputs":[],"outputs":[],"stateMutability":"nonpayable"},{"type":"event","name":"AgentReinstated","inputs":[{"name":"agentId","type":"bytes32","indexed":true,"internalType":"bytes32"},{"name":"reinstatedBy","type":"address","indexed":true,"internalType":"address"},{"name":"reinstatedAt","type":"uint48","indexed":false,"internalType":"uint48"}],"anonymous":false},{"type":"event","name":"AgentRevoked","inputs":[{"name":"agentId","type":"bytes32","indexed":true,"internalType":"bytes32"},{"name":"revokedBy","type":"address","indexed":true,"internalType":"address"},{"name":"reason","type":"uint8","indexed":false,"internalType":"enum RevocationReason"},{"name":"revokedAt","type":"uint48","indexed":false,"internalType":"uint48"}],"anonymous":false},{"type":"event","name":"Paused","inputs":[{"name":"account","type":"address","indexed":false,"internalType":"address"}],"anonymous":false},{"type":"event","name":"RoleAdminChanged","inputs":[{"name":"role","type":"bytes32","indexed":true,"internalType":"bytes32"},{"name":"previousAdminRole","type":"bytes32","indexed":true,"internalType":"bytes32"},{"name":"newAdminRole","type":"bytes32","indexed":true,"internalType":"bytes32"}],"anonymous":false},{"type":"event","name":"RoleGranted","inputs":[{"name":"role","type":"bytes32","indexed":true,"internalType":"bytes32"},{"name":"account","type":"address","indexed":true,"internalType":"address"},{"name":"sender","type":"address","indexed":true,"internalType":"address"}],"anonymous":false},{"type":"event","name":"RoleRevoked","inputs":[{"name":"role","type":"bytes32","indexed":true,"internalType":"bytes32"},{"name":"account","type":"address","indexed":true,"internalType":"address"},{"name":"sender","type":"address","indexed":true,"internalType":"address"}],"anonymous":false},{"type":"event","name":"Unpaused","inputs":[{"name":"account","type":"address","indexed":false,"internalType":"address"}],"anonymous":false},{"type":"error","name":"AccessControlBadConfirmation","inputs":[]},{"type":"error","name":"AccessControlUnauthorizedAccount","inputs":[{"name":"account","type":"address","internalType":"address"},{"name":"neededRole","type":"bytes32","internalType":"bytes32"}]},{"type":"error","name":"EnforcedPause","inputs":[]},{"type":"error","name":"ExpectedPause","inputs":[]}],"bytecode":{"object":"0x608060405234801561000f575f80fd5b50604051620011973803806200119783398101604081905261003091610140565b61003a5f82610097565b506100657fce3f34913921da558f105cefb578d87278debbbd073a8d552b5de0d168deee3082610097565b506100907f55435dd261a4b9b3364963f7738a7a662ad9c84396d64be3365284bb7f0a504182610097565b505061016d565b5f828152602081815260408083206001600160a01b038516845290915281205460ff16610137575f838152602081815260408083206001600160a01b03861684529091529020805460ff191660011790556100ef3390565b6001600160a01b0316826001600160a01b0316847f2f8788117e7eff1d82e926ec794901d17c78024a50270940304540a733656f0d60405160405180910390a450600161013a565b505f5b92915050565b5f60208284031215610150575f80fd5b81516001600160a01b0381168114610166575f80fd5b9392505050565b61101c806200017b5f395ff3fe608060405234801561000f575f80fd5b506004361061011c575f3560e01c806348f42f83116100a957806395b616d61161006e57806395b616d614610272578063a217fddf14610285578063b032b7131461028c578063d547741f1461029f578063f6593f66146102b2575f80fd5b806348f42f83146102045780635c975abb146102255780637c4acabf146102305780638456cb591461025757806391d148541461025f575f80fd5b806324ea54f4116100ef57806324ea54f4146101a05780632f2ff15d146101b457806336568abe146101c75780633f4ba83a146101da5780634294857f146101e2575f80fd5b806301ffc9a7146101205780630bedfe1514610148578063223ef0af1461015d578063248a9ca314610170575b5f80fd5b61013361012e366004610ad1565b6102d2565b60405190151581526020015b60405180910390f35b61015b610156366004610b57565b610308565b005b61015b61016b366004610c00565b610368565b61019261017e366004610c48565b5f9081526020819052604090206001015490565b60405190815260200161013f565b6101925f80516020610fc783398151915281565b61015b6101c2366004610c5f565b6103d1565b61015b6101d5366004610c5f565b6103fb565b61015b610433565b6101336101f0366004610c48565b5f9081526002602052604090205460ff1690565b61020e6201518081565b60405165ffffffffffff909116815260200161013f565b60015460ff16610133565b6101927fce3f34913921da558f105cefb578d87278debbbd073a8d552b5de0d168deee3081565b61015b610455565b61013361026d366004610c5f565b610474565b61015b610280366004610c00565b61049c565b6101925f81565b61015b61029a366004610c98565b61058f565b61015b6102ad366004610c5f565b6105cd565b6102c56102c0366004610c48565b6105f1565b60405161013f9190610d22565b5f6001600160e01b03198216637965db0b60e01b148061030257506301ffc9a760e01b6001600160e01b03198316145b92915050565b5f80516020610fc783398151915261031f81610754565b61032761075e565b845f5b8181101561035e5761035688888381811061034757610347610dce565b90506020020135878787610784565b60010161032a565b5050505050505050565b5f80516020610fc783398151915261037f81610754565b61038761075e565b5f848152600260205260409020805460ff166103be5760405162461bcd60e51b81526004016103b590610de2565b60405180910390fd5b6103ca85828686610873565b5050505050565b5f828152602081905260409020600101546103eb81610754565b6103f583836108ec565b50505050565b6001600160a01b03811633146104245760405163334bd91960e11b815260040160405180910390fd5b61042e828261097b565b505050565b5f80516020610fc783398151915261044a81610754565b6104526109e4565b50565b5f80516020610fc783398151915261046c81610754565b610452610a36565b5f918252602082815260408084206001600160a01b0393909316845291905290205460ff1690565b7fce3f34913921da558f105cefb578d87278debbbd073a8d552b5de0d168deee306104c681610754565b6104ce61075e565b5f848152600260205260409020805460ff166104fc5760405162461bcd60e51b81526004016103b590610de2565b8054610519906201518090610100900465ffffffffffff16610e27565b65ffffffffffff164210156103be5760405162461bcd60e51b815260206004820152603660248201527f5265766f636174696f6e52656769737472793a207265696e73746174656d656e6044820152751d081d1a5b595b1bd8dac81b9bdd08195e1c1a5c995960521b60648201526084016103b5565b7fce3f34913921da558f105cefb578d87278debbbd073a8d552b5de0d168deee306105b981610754565b6105c161075e565b6103ca85858585610784565b5f828152602081905260409020600101546105e781610754565b6103f5838361097b565b6106296040805160c0810182525f80825260208201819052918101829052606081018290529060808201908152602001606081525090565b5f82815260026020908152604091829020825160c081018452815460ff8082161515835265ffffffffffff6101008304811695840195909552600160381b9091049093169381019390935260018101546001600160a01b038116606085015290916080840191600160a01b90041660048111156106a8576106a8610cee565b60048111156106b9576106b9610cee565b81526020016002820180546106cd90610e59565b80601f01602080910402602001604051908101604052809291908181526020018280546106f990610e59565b80156107445780601f1061071b57610100808354040283529160200191610744565b820191905f5260205f20905b81548152906001019060200180831161072757829003601f168201915b5050505050815250509050919050565b6104528133610a71565b60015460ff16156107825760405163d93c066560e01b815260040160405180910390fd5b565b5f848152600260205260409020805460ff16156107a157506103f5565b8054600166ffffffffffffff199091166101004265ffffffffffff1602178117825581018054336001600160a01b03198216811783558692916001600160a81b03191660ff60a01b1990911617600160a01b83600481111561080557610805610cee565b021790555060028101610819838583610ee9565b5080546cffffffffffff0000000000000019168155604051339086907ffbb10cc885285ab181bb48406a41bcc1e73c5a7a3ffdf4e30a674114ea629102906108649088904290610fa3565b60405180910390a35050505050565b82546cffffffffffff000000000000ff1916600160381b4265ffffffffffff1602178355600283016108a6828483610ee9565b5060405165ffffffffffff42168152339085907faa19240656e66490d593ca727f0cd24b13b7e9ebc4b37e8a9b1e1bd1773d10359060200160405180910390a350505050565b5f6108f78383610474565b610974575f838152602081815260408083206001600160a01b03861684529091529020805460ff1916600117905561092c3390565b6001600160a01b0316826001600160a01b0316847f2f8788117e7eff1d82e926ec794901d17c78024a50270940304540a733656f0d60405160405180910390a4506001610302565b505f610302565b5f6109868383610474565b15610974575f838152602081815260408083206001600160a01b0386168085529252808320805460ff1916905551339286917ff6391f5c32d9c69d2a47ea670b442974b53935d1edc7fd64eb21e047a839171b9190a4506001610302565b6109ec610aae565b6001805460ff191690557f5db9ee0a495bf2e6ff9c91a7834c1ba4fdd244a5e8aa4e537bd38aeae4b073aa335b6040516001600160a01b03909116815260200160405180910390a1565b610a3e61075e565b6001805460ff1916811790557f62e78cea01bee320cd4e420270b5ea74000d11b0c9f74754ebdbfc544b05a25833610a19565b610a7b8282610474565b610aaa5760405163e2517d3f60e01b81526001600160a01b0382166004820152602481018390526044016103b5565b5050565b60015460ff1661078257604051638dfc202b60e01b815260040160405180910390fd5b5f60208284031215610ae1575f80fd5b81356001600160e01b031981168114610af8575f80fd5b9392505050565b803560058110610b0d575f80fd5b919050565b5f8083601f840112610b22575f80fd5b50813567ffffffffffffffff811115610b39575f80fd5b602083019150836020828501011115610b50575f80fd5b9250929050565b5f805f805f60608688031215610b6b575f80fd5b853567ffffffffffffffff80821115610b82575f80fd5b818801915088601f830112610b95575f80fd5b813581811115610ba3575f80fd5b8960208260051b8501011115610bb7575f80fd5b60208301975080965050610bcd60208901610aff565b94506040880135915080821115610be2575f80fd5b50610bef88828901610b12565b969995985093965092949392505050565b5f805f60408486031215610c12575f80fd5b83359250602084013567ffffffffffffffff811115610c2f575f80fd5b610c3b86828701610b12565b9497909650939450505050565b5f60208284031215610c58575f80fd5b5035919050565b5f8060408385031215610c70575f80fd5b8235915060208301356001600160a01b0381168114610c8d575f80fd5b809150509250929050565b5f805f8060608587031215610cab575f80fd5b84359350610cbb60208601610aff565b9250604085013567ffffffffffffffff811115610cd6575f80fd5b610ce287828801610b12565b95989497509550505050565b634e487b7160e01b5f52602160045260245ffd5b60058110610d1e57634e487b7160e01b5f52602160045260245ffd5b9052565b5f6020808352835115156020840152602084015165ffffffffffff8082166040860152806040870151166060860152505060018060a01b0360608501511660808401526080840151610d7760a0850182610d02565b5060a084015160c08085015280518060e08601525f5b81811015610daa5782810184015186820161010001528301610d8d565b5061010092505f83828701015282601f19601f830116860101935050505092915050565b634e487b7160e01b5f52603260045260245ffd5b60208082526025908201527f5265766f636174696f6e52656769737472793a206167656e74206e6f742072656040820152641d9bdad95960da1b606082015260800190565b65ffffffffffff818116838216019080821115610e5257634e487b7160e01b5f52601160045260245ffd5b5092915050565b600181811c90821680610e6d57607f821691505b602082108103610e8b57634e487b7160e01b5f52602260045260245ffd5b50919050565b634e487b7160e01b5f52604160045260245ffd5b601f82111561042e57805f5260205f20601f840160051c81016020851015610eca5750805b601f840160051c820191505b818110156103ca575f8155600101610ed6565b67ffffffffffffffff831115610f0157610f01610e91565b610f1583610f0f8354610e59565b83610ea5565b5f601f841160018114610f46575f8515610f2f5750838201355b5f19600387901b1c1916600186901b1783556103ca565b5f83815260208120601f198716915b82811015610f755786850135825560209485019460019092019101610f55565b5086821015610f91575f1960f88860031b161c19848701351681555b505060018560011b0183555050505050565b60408101610fb18285610d02565b65ffffffffffff83166020830152939250505056fe55435dd261a4b9b3364963f7738a7a662ad9c84396d64be3365284bb7f0a5041a26469706673582212205424cdffc996600d7006b0e381d457dcebd17ddb88b1f2ac30c55df878a5148164736f6c63430008180033","linkReferences":{}},"methodIdentifiers":{"DEFAULT_ADMIN_ROLE()":"a217fddf","GUARDIAN_ROLE()":"24ea54f4","REINSTATEMENT_DELAY()":"48f42f83","REVOKER_ROLE()":"7c4acabf","batchRevoke(bytes32[],uint8,string)":"0bedfe15","emergencyReinstate(bytes32,string)":"223ef0af","getRevocationRecord(bytes32)":"f6593f66","getRoleAdmin(bytes32)":"248a9ca3","grantRole(bytes32,address)":"2f2ff15d","hasRole(bytes32,address)":"91d14854","isRevoked(bytes32)":"4294857f","pause()":"8456cb59","paused()":"5c975abb","reinstate(bytes32,string)":"95b616d6","renounceRole(bytes32,address)":"36568abe","revoke(bytes32,uint8,string)":"b032b713","revokeRole(bytes32,address)":"d547741f","supportsInterface(bytes4)":"01ffc9a7","unpause()":"3f4ba83a"},"id":45}