{"abi":[{"type":"constructor","inputs":[{"name":"admin","type":"address","internalType":"address"}],"stateMutability":"nonpayable"},{"type":"function","name":"DEFAULT_ADMIN_ROLE","inputs":[],"outputs":[{"name":"","type":"bytes32","internalType":"bytes32"}],"stateMutability":"view"},{"type":"function","name":"DEVIATION_BPS","inputs":[],"outputs":[{"name":"","type":"uint256","internalType":"uint256"}],"stateMutability":"view"},{"type":"function","name":"MAX_ENTRIES","inputs":[],"outputs":[{"name":"","type":"uint256","internalType":"uint256"}],"stateMutability":"view"},{"type":"function","name":"MAX_FEED_AGE","inputs":[],"outputs":[{"name":"","type":"uint256","internalType":"uint256"}],"stateMutability":"view"},{"type":"function","name":"VAULT_ROLE","inputs":[],"outputs":[{"name":"","type":"bytes32","internalType":"bytes32"}],"stateMutability":"view"},{"type":"function","name":"checkSpendCap","inputs":[{"name":"agentId","type":"bytes32","internalType":"bytes32"},{"name":"proposedUSD","type":"uint256","internalType":"uint256"},{"name":"capUSD","type":"uint256","internalType":"uint256"}],"outputs":[{"name":"withinCap","type":"bool","internalType":"bool"}],"stateMutability":"view"},{"type":"function","name":"getPriceFeed","inputs":[{"name":"token","type":"address","internalType":"address"}],"outputs":[{"name":"","type":"address","internalType":"address"}],"stateMutability":"view"},{"type":"function","name":"getRoleAdmin","inputs":[{"name":"role","type":"bytes32","internalType":"bytes32"}],"outputs":[{"name":"","type":"bytes32","internalType":"bytes32"}],"stateMutability":"view"},{"type":"function","name":"getRollingSpend","inputs":[{"name":"agentId","type":"bytes32","internalType":"bytes32"},{"name":"windowSeconds","type":"uint256","internalType":"uint256"}],"outputs":[{"name":"","type":"uint256","internalType":"uint256"}],"stateMutability":"view"},{"type":"function","name":"getUSDValue","inputs":[{"name":"token","type":"address","internalType":"address"},{"name":"amount","type":"uint256","internalType":"uint256"}],"outputs":[{"name":"usdValue18","type":"uint256","internalType":"uint256"}],"stateMutability":"view"},{"type":"function","name":"grantRole","inputs":[{"name":"role","type":"bytes32","internalType":"bytes32"},{"name":"account","type":"address","internalType":"address"}],"outputs":[],"stateMutability":"nonpayable"},{"type":"function","name":"hasRole","inputs":[{"name":"role","type":"bytes32","internalType":"bytes32"},{"name":"account","type":"address","internalType":"address"}],"outputs":[{"name":"","type":"bool","internalType":"bool"}],"stateMutability":"view"},{"type":"function","name":"pause","inputs":[],"outputs":[],"stateMutability":"nonpayable"},{"type":"function","name":"paused","inputs":[],"outputs":[{"name":"","type":"bool","internalType":"bool"}],"stateMutability":"view"},{"type":"function","name":"recordSpend","inputs":[{"name":"agentId","type":"bytes32","internalType":"bytes32"},{"name":"usdAmount18","type":"uint256","internalType":"uint256"},{"name":"timestamp","type":"uint48","internalType":"uint48"}],"outputs":[],"stateMutability":"nonpayable"},{"type":"function","name":"renounceRole","inputs":[{"name":"role","type":"bytes32","internalType":"bytes32"},{"name":"callerConfirmation","type":"address","internalType":"address"}],"outputs":[],"stateMutability":"nonpayable"},{"type":"function","name":"revokeRole","inputs":[{"name":"role","type":"bytes32","internalType":"bytes32"},{"name":"account","type":"address","internalType":"address"}],"outputs":[],"stateMutability":"nonpayable"},{"type":"function","name":"setPriceFeed","inputs":[{"name":"token","type":"address","internalType":"address"},{"name":"feed","type":"address","internalType":"address"}],"outputs":[],"stateMutability":"nonpayable"},{"type":"function","name":"supportsInterface","inputs":[{"name":"interfaceId","type":"bytes4","internalType":"bytes4"}],"outputs":[{"name":"","type":"bool","internalType":"bool"}],"stateMutability":"view"},{"type":"function","name":"unpause","inputs":[],"outputs":[],"stateMutability":"nonpayable"},{"type":"event","name":"Paused","inputs":[{"name":"account","type":"address","indexed":false,"internalType":"address"}],"anonymous":false},{"type":"event","name":"RoleAdminChanged","inputs":[{"name":"role","type":"bytes32","indexed":true,"internalType":"bytes32"},{"name":"previousAdminRole","type":"bytes32","indexed":true,"internalType":"bytes32"},{"name":"newAdminRole","type":"bytes32","indexed":true,"internalType":"bytes32"}],"anonymous":false},{"type":"event","name":"RoleGranted","inputs":[{"name":"role","type":"bytes32","indexed":true,"internalType":"bytes32"},{"name":"account","type":"address","indexed":true,"internalType":"address"},{"name":"sender","type":"address","indexed":true,"internalType":"address"}],"anonymous":false},{"type":"event","name":"RoleRevoked","inputs":[{"name":"role","type":"bytes32","indexed":true,"internalType":"bytes32"},{"name":"account","type":"address","indexed":true,"internalType":"address"},{"name":"sender","type":"address","indexed":true,"internalType":"address"}],"anonymous":false},{"type":"event","name":"SpendRecorded","inputs":[{"name":"agentId","type":"bytes32","indexed":true,"internalType":"bytes32"},{"name":"usdAmount","type":"uint256","indexed":false,"internalType":"uint256"},{"name":"runningTotal","type":"uint256","indexed":false,"internalType":"uint256"}],"anonymous":false},{"type":"event","name":"Unpaused","inputs":[{"name":"account","type":"address","indexed":false,"internalType":"address"}],"anonymous":false},{"type":"error","name":"AccessControlBadConfirmation","inputs":[]},{"type":"error","name":"AccessControlUnauthorizedAccount","inputs":[{"name":"account","type":"address","internalType":"address"},{"name":"neededRole","type":"bytes32","internalType":"bytes32"}]},{"type":"error","name":"EnforcedPause","inputs":[]},{"type":"error","name":"ExpectedPause","inputs":[]}],"bytecode":{"object":"0x608060405234801561000f575f80fd5b506040516110e03803806110e083398101604081905261002e91610113565b6100385f8261006a565b506100637f31e0210044b4f6757ce6aa31f9c6e8d4896d24a755014887391a926c5224d9598261006a565b5050610140565b5f828152602081815260408083206001600160a01b038516845290915281205460ff1661010a575f838152602081815260408083206001600160a01b03861684529091529020805460ff191660011790556100c23390565b6001600160a01b0316826001600160a01b0316847f2f8788117e7eff1d82e926ec794901d17c78024a50270940304540a733656f0d60405160405180910390a450600161010d565b505f5b92915050565b5f60208284031215610123575f80fd5b81516001600160a01b0381168114610139575f80fd5b9392505050565b610f938061014d5f395ff3fe608060405234801561000f575f80fd5b5060043610610127575f3560e01c80636e858860116100a957806398c4f1ac1161006e57806398c4f1ac14610270578063a217fddf14610297578063d547741f1461029e578063f2cc8553146102b1578063fa76dcf2146102c4575f80fd5b80636e8588601461023057806376e11286146102395780637d4cb9641461024c5780638456cb591461025557806391d148541461025d575f80fd5b80634321c41d116100ef5780634321c41d146101b35780635a972344146101c65780635b6cca80146101d95780635c975abb1461021c578063696453b814610227575f80fd5b806301ffc9a71461012b578063248a9ca3146101535780632f2ff15d1461018357806336568abe146101985780633f4ba83a146101ab575b5f80fd5b61013e610139366004610ba5565b6102d7565b60405190151581526020015b60405180910390f35b610175610161366004610bcc565b5f9081526020819052604090206001015490565b60405190815260200161014a565b610196610191366004610bfe565b61030d565b005b6101966101a6366004610bfe565b610337565b61019661036f565b6101756101c1366004610c28565b610384565b6101966101d4366004610c48565b610396565b6102046101e7366004610c88565b6001600160a01b039081165f908152600460205260409020541690565b6040516001600160a01b03909116815260200161014a565b60015460ff1661013e565b610175610e1081565b6101756101f481565b610196610247366004610ca1565b610524565b6101756103e881565b61019661055c565b61013e61026b366004610bfe565b61056e565b6101757f31e0210044b4f6757ce6aa31f9c6e8d4896d24a755014887391a926c5224d95981565b6101755f81565b6101966102ac366004610bfe565b610596565b61013e6102bf366004610cc9565b6105ba565b6101756102d2366004610cf2565b6105f0565b5f6001600160e01b03198216637965db0b60e01b148061030757506301ffc9a760e01b6001600160e01b03198316145b92915050565b5f82815260208190526040902060010154610327816105fb565b6103318383610605565b50505050565b6001600160a01b03811633146103605760405163334bd91960e11b815260040160405180910390fd5b61036a8282610694565b505050565b5f610379816105fb565b6103816106fd565b50565b5f61038f838361074f565b9392505050565b7f31e0210044b4f6757ce6aa31f9c6e8d4896d24a755014887391a926c5224d9596103c0816105fb565b6103c86107f4565b5f848152600360205260408120546103e3906103e890610d2e565b90506001600160d01b038411156104415760405162461bcd60e51b815260206004820152601d60248201527f5370656e64547261636b65723a20616d6f756e74206f766572666c6f7700000060448201526064015b60405180910390fd5b60405180604001604052808465ffffffffffff168152602001856001600160d01b031681525060025f8781526020019081526020015f20826103e8811061048a5761048a610d41565b82516020938401516001600160d01b031666010000000000000265ffffffffffff909116179101555f8681526003909152604081208054916104cb83610d69565b91905055505f6104de866201518061074f565b604080518781526020810183905291925087917ff930946ff8c76bda3b994c8b61ef5436b58db05adc2f256a81441b7bfc737d2f910160405180910390a2505050505050565b5f61052e816105fb565b506001600160a01b039182165f90815260046020526040902080546001600160a01b03191691909216179055565b5f610566816105fb565b61038161081a565b5f918252602082815260408084206001600160a01b0393909316845291905290205460ff1690565b5f828152602081905260409020600101546105b0816105fb565b6103318383610694565b5f815f036105ca5750600161038f565b5f6105d8856201518061074f565b9050826105e58583610d81565b111595945050505050565b5f61038f8383610855565b6103818133610ab8565b5f610610838361056e565b61068d575f838152602081815260408083206001600160a01b03861684529091529020805460ff191660011790556106453390565b6001600160a01b0316826001600160a01b0316847f2f8788117e7eff1d82e926ec794901d17c78024a50270940304540a733656f0d60405160405180910390a4506001610307565b505f610307565b5f61069f838361056e565b1561068d575f838152602081815260408083206001600160a01b0386168085529252808320805460ff1916905551339286917ff6391f5c32d9c69d2a47ea670b442974b53935d1edc7fd64eb21e047a839171b9190a4506001610307565b610705610af5565b6001805460ff191690557f5db9ee0a495bf2e6ff9c91a7834c1ba4fdd244a5e8aa4e537bd38aeae4b073aa335b6040516001600160a01b03909116815260200160405180910390a1565b5f8061075b8342610d94565b5f858152600360205260408120549192506103e8821061077d576103e861077f565b815b90505f5b818110156107ea575f878152600260205260408120826103e881106107aa576107aa610d41565b01805490915065ffffffffffff168510156107e15780546107de90660100000000000090046001600160d01b031687610d81565b95505b50600101610783565b5050505092915050565b60015460ff16156108185760405163d93c066560e01b815260040160405180910390fd5b565b6108226107f4565b6001805460ff1916811790557f62e78cea01bee320cd4e420270b5ea74000d11b0c9f74754ebdbfc544b05a25833610732565b6001600160a01b038083165f90815260046020526040812054909116806108cc5760405162461bcd60e51b815260206004820152602560248201527f5370656e64547261636b65723a206e6f207072696365206665656420666f72206044820152643a37b5b2b760d91b6064820152608401610438565b5f8190505f80826001600160a01b031663feaf968c6040518163ffffffff1660e01b815260040160a060405180830381865afa15801561090e573d5f803e3d5ffd5b505050506040513d601f19601f820116820180604052508101906109329190610dc0565b509350509250505f821361099c5760405162461bcd60e51b815260206004820152602b60248201527f5370656e64547261636b65723a206e65676174697665206f72207a65726f206f60448201526a7261636c6520707269636560a81b6064820152608401610438565b610e106109a98242610d94565b11156109f75760405162461bcd60e51b815260206004820181905260248201527f5370656e64547261636b65723a207374616c65206f7261636c652070726963656044820152606401610438565b5f836001600160a01b031663313ce5676040518163ffffffff1660e01b8152600401602060405180830381865afa158015610a34573d5f803e3d5ffd5b505050506040513d601f19601f82011682018060405250810190610a589190610e0c565b90505f610a6489610b18565b90505f610a72836012610e2c565b610a7d90600a610f25565b610a879086610f33565b90505f610a9583600a610f25565b610a9f838c610f33565b610aa99190610f4a565b9b9a5050505050505050505050565b610ac2828261056e565b610af15760405163e2517d3f60e01b81526001600160a01b038216600482015260248101839052604401610438565b5050565b60015460ff1661081857604051638dfc202b60e01b815260040160405180910390fd5b5f6001600160a01b03821673833589fcd6edb6e08f4c7c32d4f71b54bda0291303610b4557506006919050565b6001600160a01b03821673036cbd53842c5426634e7929541ec2318f3dcf7e03610b7157506006919050565b6001600160a01b038216730555e30da8f98308edb960aa94c0db47230d2b9c03610b9d57506008919050565b506012919050565b5f60208284031215610bb5575f80fd5b81356001600160e01b03198116811461038f575f80fd5b5f60208284031215610bdc575f80fd5b5035919050565b80356001600160a01b0381168114610bf9575f80fd5b919050565b5f8060408385031215610c0f575f80fd5b82359150610c1f60208401610be3565b90509250929050565b5f8060408385031215610c39575f80fd5b50508035926020909101359150565b5f805f60608486031215610c5a575f80fd5b8335925060208401359150604084013565ffffffffffff81168114610c7d575f80fd5b809150509250925092565b5f60208284031215610c98575f80fd5b61038f82610be3565b5f8060408385031215610cb2575f80fd5b610cbb83610be3565b9150610c1f60208401610be3565b5f805f60608486031215610cdb575f80fd5b505081359360208301359350604090920135919050565b5f8060408385031215610d03575f80fd5b610d0c83610be3565b946020939093013593505050565b634e487b7160e01b5f52601260045260245ffd5b5f82610d3c57610d3c610d1a565b500690565b634e487b7160e01b5f52603260045260245ffd5b634e487b7160e01b5f52601160045260245ffd5b5f60018201610d7a57610d7a610d55565b5060010190565b8082018082111561030757610307610d55565b8181038181111561030757610307610d55565b805169ffffffffffffffffffff81168114610bf9575f80fd5b5f805f805f60a08688031215610dd4575f80fd5b610ddd86610da7565b9450602086015193506040860151925060608601519150610e0060808701610da7565b90509295509295909350565b5f60208284031215610e1c575f80fd5b815160ff8116811461038f575f80fd5b60ff828116828216039081111561030757610307610d55565b600181815b80851115610e7f57815f1904821115610e6557610e65610d55565b80851615610e7257918102915b93841c9390800290610e4a565b509250929050565b5f82610e9557506001610307565b81610ea157505f610307565b8160018114610eb75760028114610ec157610edd565b6001915050610307565b60ff841115610ed257610ed2610d55565b50506001821b610307565b5060208310610133831016604e8410600b8410161715610f00575081810a610307565b610f0a8383610e45565b805f1904821115610f1d57610f1d610d55565b029392505050565b5f61038f60ff841683610e87565b808202811582820484141761030757610307610d55565b5f82610f5857610f58610d1a565b50049056fea26469706673582212202e43dcbb8144afe6e0b345c53e24a6d898eeacfa1f267c5360ad277b0002d59364736f6c63430008180033","linkReferences":{}},"methodIdentifiers":{"DEFAULT_ADMIN_ROLE()":"a217fddf","DEVIATION_BPS()":"6e858860","MAX_ENTRIES()":"7d4cb964","MAX_FEED_AGE()":"696453b8","VAULT_ROLE()":"98c4f1ac","checkSpendCap(bytes32,uint256,uint256)":"f2cc8553","getPriceFeed(address)":"5b6cca80","getRoleAdmin(bytes32)":"248a9ca3","getRollingSpend(bytes32,uint256)":"4321c41d","getUSDValue(address,uint256)":"fa76dcf2","grantRole(bytes32,address)":"2f2ff15d","hasRole(bytes32,address)":"91d14854","pause()":"8456cb59","paused()":"5c975abb","recordSpend(bytes32,uint256,uint48)":"5a972344","renounceRole(bytes32,address)":"36568abe","revokeRole(bytes32,address)":"d547741f","setPriceFeed(address,address)":"76e11286","supportsInterface(bytes4)":"01ffc9a7","unpause()":"3f4ba83a"},"id":46}